{
    "address": "TCW2QVzHruuswxgApW32cQCRNrYeT7NnVA",
    "contractName": "DexManagerFacet",
    "abi": [
        {
            "anonymous": false,
            "inputs": [
                {
                    "indexed": true,
                    "internalType": "address",
                    "name": "dexAddress",
                    "type": "address"
                }
            ],
            "name": "DexAdded",
            "type": "event"
        },
        {
            "anonymous": false,
            "inputs": [
                {
                    "indexed": true,
                    "internalType": "address",
                    "name": "dexAddress",
                    "type": "address"
                }
            ],
            "name": "DexRemoved",
            "type": "event"
        },
        {
            "anonymous": false,
            "inputs": [
                {
                    "indexed": true,
                    "internalType": "bytes4",
                    "name": "functionSignature",
                    "type": "bytes4"
                },
                {
                    "indexed": true,
                    "internalType": "bool",
                    "name": "approved",
                    "type": "bool"
                }
            ],
            "name": "FunctionSignatureApprovalChanged",
            "type": "event"
        },
        {
            "inputs": [
                {
                    "internalType": "address",
                    "name": "_dex",
                    "type": "address"
                }
            ],
            "name": "addDex",
            "outputs": [],
            "stateMutability": "nonpayable",
            "type": "function"
        },
        {
            "inputs": [],
            "name": "approvedDexs",
            "outputs": [
                {
                    "internalType": "address[]",
                    "name": "addresses",
                    "type": "address[]"
                }
            ],
            "stateMutability": "view",
            "type": "function"
        },
        {
            "inputs": [
                {
                    "internalType": "address[]",
                    "name": "_dexs",
                    "type": "address[]"
                }
            ],
            "name": "batchAddDex",
            "outputs": [],
            "stateMutability": "nonpayable",
            "type": "function"
        },
        {
            "inputs": [
                {
                    "internalType": "address[]",
                    "name": "_dexs",
                    "type": "address[]"
                }
            ],
            "name": "batchRemoveDex",
            "outputs": [],
            "stateMutability": "nonpayable",
            "type": "function"
        },
        {
            "inputs": [
                {
                    "internalType": "bytes4[]",
                    "name": "_signatures",
                    "type": "bytes4[]"
                },
                {
                    "internalType": "bool",
                    "name": "_approval",
                    "type": "bool"
                }
            ],
            "name": "batchSetFunctionApprovalBySignature",
            "outputs": [],
            "stateMutability": "nonpayable",
            "type": "function"
        },
        {
            "inputs": [
                {
                    "internalType": "bytes4",
                    "name": "_signature",
                    "type": "bytes4"
                }
            ],
            "name": "isFunctionApproved",
            "outputs": [
                {
                    "internalType": "bool",
                    "name": "approved",
                    "type": "bool"
                }
            ],
            "stateMutability": "view",
            "type": "function"
        },
        {
            "inputs": [
                {
                    "internalType": "address",
                    "name": "_dex",
                    "type": "address"
                }
            ],
            "name": "removeDex",
            "outputs": [],
            "stateMutability": "nonpayable",
            "type": "function"
        },
        {
            "inputs": [
                {
                    "internalType": "bytes4",
                    "name": "_signature",
                    "type": "bytes4"
                },
                {
                    "internalType": "bool",
                    "name": "_approval",
                    "type": "bool"
                }
            ],
            "name": "setFunctionApprovalBySignature",
            "outputs": [],
            "stateMutability": "nonpayable",
            "type": "function"
        }
    ],
    "bytecode": "0x608060405234801561001057600080fd5b50d3801561001d57600080fd5b50d2801561002a57600080fd5b50610cc38061003a6000396000f3fe608060405234801561001057600080fd5b50d3801561001d57600080fd5b50d2801561002a57600080fd5b50600436106100a25760003560e01c80639afc19c7116100755780639afc19c714610143578063c3a6a96b14610156578063fbb2d38114610169578063fcd8e49e1461017e57600080fd5b8063124f1ead146100a75780632d2506a9146100bc57806344e2b18c1461011d578063536db26614610130575b600080fd5b6100ba6100b5366004610a88565b610191565b005b6101086100ca366004610b57565b6001600160e01b03191660009081527fbcebf0a9ab66af8ebd1c7c5806111adc185225ddfcbffe27e46ed5ac66b89049602052604090205460ff1690565b60405190151581526020015b60405180910390f35b6100ba61012b366004610b03565b6101f9565b6100ba61013e366004610a88565b6102be565b6100ba610151366004610ac1565b61037c565b6100ba610164366004610b79565b610449565b6101716104cb565b6040516101149190610bac565b6100ba61018c366004610ac1565b6104da565b610199610604565b6001600160a01b0316336001600160a01b0316146101b9576101b9610632565b6101c2816106c1565b6040516001600160a01b038216907f78e0a2ffcdfbbb49ba5c8050d8630fab2176d825e8360809db049cd98f462a7890600090a250565b610201610604565b6001600160a01b0316336001600160a01b03161461022157610221610632565b8160005b818110156102b757600085858381811061024157610241610c57565b90506020020160208101906102569190610b57565b9050831561026c5761026781610825565b610275565b61027581610867565b604051841515906001600160e01b03198316907f9167f6a23d52a4522e9211205d62ce63f02d928227ae0fe00326f51e152a3c4590600090a350600101610225565b5050505050565b6102c6610604565b6001600160a01b0316336001600160a01b0316146102e6576102e6610632565b6001600160a01b03811630141561033c5760405162461bcd60e51b815260206004820152601560248201527443616e6e6f74417574686f7269736553656c66282960581b60448201526064015b60405180910390fd5b6103458161087d565b6040516001600160a01b038216907f7e0058dd0cbc0a8b7beaa013a4825655d8e9e81a5e2cc6582818deded0a41b9990600090a250565b610384610604565b6001600160a01b0316336001600160a01b0316146103a4576103a4610632565b8060005b81811015610443576103df8484838181106103c5576103c5610c57565b90506020020160208101906103da9190610a88565b6106c1565b8383828181106103f1576103f1610c57565b90506020020160208101906104069190610a88565b6001600160a01b03167f78e0a2ffcdfbbb49ba5c8050d8630fab2176d825e8360809db049cd98f462a7860405160405180910390a26001016103a8565b50505050565b610451610604565b6001600160a01b0316336001600160a01b03161461047157610471610632565b80156104855761048082610825565b61048e565b61048e82610867565b604051811515906001600160e01b03198416907f9167f6a23d52a4522e9211205d62ce63f02d928227ae0fe00326f51e152a3c4590600090a35050565b60606104d5610908565b905090565b6104e2610604565b6001600160a01b0316336001600160a01b03161461050257610502610632565b8060005b8181101561044357600084848381811061052257610522610c57565b90506020020160208101906105379190610a88565b90506001600160a01b03811630141561058a5760405162461bcd60e51b815260206004820152601560248201527443616e6e6f74417574686f7269736553656c66282960581b6044820152606401610333565b6001600160a01b0381166000908152600080516020610c6e833981519152602052604090205460ff16156105be5750610506565b6105c78161087d565b6040516001600160a01b038216907f7e0058dd0cbc0a8b7beaa013a4825655d8e9e81a5e2cc6582818deded0a41b9990600090a250600101610506565b7fc8fcad8db84d3cc18b4c41d551ea0ee66dd599cde068d998e57d5e09332c1320546001600160a01b031690565b600080356001600160e01b03191681527f2f67df2c8ea98878b27d45fa54c0be4d9d8154fefc089eb664599d68f8dc88a96020818152604080842033855290915290912054600160ff9091161515146106be5760405162461bcd60e51b815260206004820152600e60248201526d556e417574686f72697a6564282960901b6044820152606401610333565b50565b6001600160a01b0381166000908152600080516020610c6e833981519152602081905260409091205460ff166106f5575050565b6001600160a01b0382166000908152602082905260408120805460ff191690556002820154905b8181101561044357836001600160a01b031683600201828154811061074357610743610c57565b6000918252602090912001546001600160a01b03161415610813576002830161076d600184610bf9565b8154811061077d5761077d610c57565b6000918252602090912001546002840180546001600160a01b0390921691839081106107ab576107ab610c57565b9060005260206000200160006101000a8154816001600160a01b0302191690836001600160a01b03160217905550826002018054806107ec576107ec610c41565b600082815260209020810160001990810180546001600160a01b0319169055019055610443565b8061081d81610c10565b91505061071c565b6001600080516020610c6e8339815191525b6001600160e01b031992909216600090815260019092016020526040909120805460ff1916911515919091179055565b6000600080516020610c6e833981519152610837565b6108868161097a565b6001600160a01b0381166000908152600080516020610c6e833981519152602081905260409091205460ff16156108bb575050565b6001600160a01b039091166000818152602083815260408220805460ff191660019081179091556002909401805494850181558252902090910180546001600160a01b0319169091179055565b6060600080516020610c6e83398151915260020180548060200260200160405190810160405280929190818152602001828054801561097057602002820191906000526020600020905b81546001600160a01b03168152600190910190602001808311610952575b5050505050905090565b6001600160a01b0381166109c45760405162461bcd60e51b8152602060048201526011602482015270496e76616c6964436f6e7472616374282960781b6044820152606401610333565b6001600160a01b0381163b6106be5760405162461bcd60e51b8152602060048201526011602482015270496e76616c6964436f6e7472616374282960781b6044820152606401610333565b60008083601f840112610a2157600080fd5b50813567ffffffffffffffff811115610a3957600080fd5b6020830191508360208260051b8501011115610a5457600080fd5b9250929050565b80358015158114610a6b57600080fd5b919050565b80356001600160e01b031981168114610a6b57600080fd5b600060208284031215610a9a57600080fd5b81356001600160a81b0381168114610ab157600080fd5b6001600160a01b03169392505050565b60008060208385031215610ad457600080fd5b823567ffffffffffffffff811115610aeb57600080fd5b610af785828601610a0f565b90969095509350505050565b600080600060408486031215610b1857600080fd5b833567ffffffffffffffff811115610b2f57600080fd5b610b3b86828701610a0f565b9094509250610b4e905060208501610a5b565b90509250925092565b600060208284031215610b6957600080fd5b610b7282610a70565b9392505050565b60008060408385031215610b8c57600080fd5b610b9583610a70565b9150610ba360208401610a5b565b90509250929050565b6020808252825182820181905260009190848201906040850190845b81811015610bed5783516001600160a01b031683529284019291840191600101610bc8565b50909695505050505050565b600082821015610c0b57610c0b610c2b565b500390565b6000600019821415610c2457610c24610c2b565b5060010190565b634e487b7160e01b600052601160045260246000fd5b634e487b7160e01b600052603160045260246000fd5b634e487b7160e01b600052603260045260246000fdfebcebf0a9ab66af8ebd1c7c5806111adc185225ddfcbffe27e46ed5ac66b89048a26474726f6e58221220249a74ba35506f8cc6fdb63264ce64d4b913165f76f5664ac7a923fae233cffb64736f6c63430008060033",
    "source": "// SPDX-License-Identifier: MIT\npragma solidity ^0.8.6;\n\nimport \"../Libraries/LibDiamond.sol\";\nimport \"../Libraries/LibAccess.sol\";\nimport \"../Libraries/LibAllowList.sol\";\nimport \"../Libraries/LibAsset.sol\";\nimport \"../Errors/GenericErrors.sol\";\n\n/// @title Dex Manager Facet\n/// @author Kana\n/// @notice Facet contract for managing approved DEXs to be used in swaps.\ncontract DexManagerFacet {\n    /// Events ///\n\n    event DexAdded(address indexed dexAddress);\n    event DexRemoved(address indexed dexAddress);\n    event FunctionSignatureApprovalChanged(\n        bytes4 indexed functionSignature,\n        bool indexed approved\n    );\n\n    /// External Methods ///\n\n    /// @notice Register the address of a DEX contract to be approved for swapping.\n    /// @param _dex The address of the DEX contract to be approved.\n    function addDex(address _dex) external {\n        if (msg.sender != LibDiamond.contractOwner()) {\n            LibAccess.enforceAccessControl();\n        }\n\n        if (_dex == address(this)) {\n            revert(\"CannotAuthoriseSelf()\");\n        }\n\n        LibAllowList.addAllowedContract(_dex);\n\n        emit DexAdded(_dex);\n    }\n\n    /// @notice Batch register the address of DEX contracts to be approved for swapping.\n    /// @param _dexs The addresses of the DEX contracts to be approved.\n    function batchAddDex(address[] calldata _dexs) external {\n        if (msg.sender != LibDiamond.contractOwner()) {\n            LibAccess.enforceAccessControl();\n        }\n        uint256 length = _dexs.length;\n\n        for (uint256 i = 0; i < length; ) {\n            address dex = _dexs[i];\n            if (dex == address(this)) {\n                revert(\"CannotAuthoriseSelf()\");\n            }\n            if (LibAllowList.contractIsAllowed(dex)) continue;\n            LibAllowList.addAllowedContract(dex);\n            emit DexAdded(dex);\n            unchecked {\n                ++i;\n            }\n        }\n    }\n\n    /// @notice Unregister the address of a DEX contract approved for swapping.\n    /// @param _dex The address of the DEX contract to be unregistered.\n    function removeDex(address _dex) external {\n        if (msg.sender != LibDiamond.contractOwner()) {\n            LibAccess.enforceAccessControl();\n        }\n        LibAllowList.removeAllowedContract(_dex);\n        emit DexRemoved(_dex);\n    }\n\n    /// @notice Batch unregister the addresses of DEX contracts approved for swapping.\n    /// @param _dexs The addresses of the DEX contracts to be unregistered.\n    function batchRemoveDex(address[] calldata _dexs) external {\n        if (msg.sender != LibDiamond.contractOwner()) {\n            LibAccess.enforceAccessControl();\n        }\n        uint256 length = _dexs.length;\n        for (uint256 i = 0; i < length; ) {\n            LibAllowList.removeAllowedContract(_dexs[i]);\n            emit DexRemoved(_dexs[i]);\n            unchecked {\n                ++i;\n            }\n        }\n    }\n\n    /// @notice Adds/removes a specific function signature to/from the allowlist\n    /// @param _signature the function signature to allow/disallow\n    /// @param _approval whether the function signature should be allowed\n    function setFunctionApprovalBySignature(bytes4 _signature, bool _approval)\n        external\n    {\n        if (msg.sender != LibDiamond.contractOwner()) {\n            LibAccess.enforceAccessControl();\n        }\n\n        if (_approval) {\n            LibAllowList.addAllowedSelector(_signature);\n        } else {\n            LibAllowList.removeAllowedSelector(_signature);\n        }\n\n        emit FunctionSignatureApprovalChanged(_signature, _approval);\n    }\n\n    /// @notice Batch Adds/removes a specific function signature to/from the allowlist\n    /// @param _signatures the function signatures to allow/disallow\n    /// @param _approval whether the function signatures should be allowed\n    function batchSetFunctionApprovalBySignature(\n        bytes4[] calldata _signatures,\n        bool _approval\n    ) external {\n        if (msg.sender != LibDiamond.contractOwner()) {\n            LibAccess.enforceAccessControl();\n        }\n        uint256 length = _signatures.length;\n        for (uint256 i = 0; i < length; ) {\n            bytes4 _signature = _signatures[i];\n            if (_approval) {\n                LibAllowList.addAllowedSelector(_signature);\n            } else {\n                LibAllowList.removeAllowedSelector(_signature);\n            }\n            emit FunctionSignatureApprovalChanged(_signature, _approval);\n            unchecked {\n                ++i;\n            }\n        }\n    }\n\n    /// @notice Returns whether a function signature is approved\n    /// @param _signature the function signature to query\n    /// @return approved Approved or not\n    function isFunctionApproved(bytes4 _signature)\n        public\n        view\n        returns (bool approved)\n    {\n        return LibAllowList.selectorIsAllowed(_signature);\n    }\n\n    /// @notice Returns a list of all approved DEX addresses.\n    /// @return addresses List of approved DEX addresses\n    function approvedDexs() external view returns (address[] memory addresses) {\n        return LibAllowList.getAllowedContracts();\n    }\n}\n",
    "sourcePath": "/Users/family/Desktop/Kana/kana-aggregator-solidity/tronboxproject/contracts/Facets/DexManagerFacet.sol",
    "compiler": {
        "name": "solc",
        "version": "0.8.6+commit.0e36fba0.mod.Emscripten.clang"
    },
    "schemaVersion": "2.0.1",
    "updatedAt": "2022-12-21T14:25:57.733Z"
}