{
    "address": "TFNhYCERXNvQwtgDRzKgufqDZcFxTsZnRD",
    "contractName": "DiamondCutFacet",
    "abi": [
        {
            "anonymous": false,
            "inputs": [
                {
                    "components": [
                        {
                            "internalType": "address",
                            "name": "facetAddress",
                            "type": "address"
                        },
                        {
                            "internalType": "enum IDiamondCut.FacetCutAction",
                            "name": "action",
                            "type": "uint8"
                        },
                        {
                            "internalType": "bytes4[]",
                            "name": "functionSelectors",
                            "type": "bytes4[]"
                        }
                    ],
                    "indexed": false,
                    "internalType": "struct IDiamondCut.FacetCut[]",
                    "name": "_diamondCut",
                    "type": "tuple[]"
                },
                {
                    "indexed": false,
                    "internalType": "address",
                    "name": "_init",
                    "type": "address"
                },
                {
                    "indexed": false,
                    "internalType": "bytes",
                    "name": "_calldata",
                    "type": "bytes"
                }
            ],
            "name": "DiamondCut",
            "type": "event",
            "stateMutability": "nonpayable"
        },
        {
            "inputs": [
                {
                    "components": [
                        {
                            "internalType": "address",
                            "name": "facetAddress",
                            "type": "address"
                        },
                        {
                            "internalType": "enum IDiamondCut.FacetCutAction",
                            "name": "action",
                            "type": "uint8"
                        },
                        {
                            "internalType": "bytes4[]",
                            "name": "functionSelectors",
                            "type": "bytes4[]"
                        }
                    ],
                    "internalType": "struct IDiamondCut.FacetCut[]",
                    "name": "_diamondCut",
                    "type": "tuple[]"
                },
                {
                    "internalType": "address",
                    "name": "_init",
                    "type": "address"
                },
                {
                    "internalType": "bytes",
                    "name": "_calldata",
                    "type": "bytes"
                }
            ],
            "name": "diamondCut",
            "outputs": [],
            "stateMutability": "nonpayable",
            "type": "function"
        }
    ],
    "bytecode": "0x608060405234801561001057600080fd5b50d3801561001d57600080fd5b50d2801561002a57600080fd5b506112878061003a6000396000f3fe608060405234801561001057600080fd5b50d3801561001d57600080fd5b50d2801561002a57600080fd5b50600436106100455760003560e01c80631f931c1c1461004a575b600080fd5b61005d610058366004610d81565b61005f565b005b6100676100b8565b6100b16100748587611065565b8484848080601f01602080910402602001604051908101604052809392919081815260200183838082843760009201919091525061011f92505050565b5050505050565b600080516020611232833981519152600401546001600160a01b0316331461011d5760405162461bcd60e51b81526020600482015260136024820152724f6e6c79436f6e74726163744f776e6572282960681b60448201526064015b60405180910390fd5b565b60005b83518110156102ce57600084828151811061013f5761013f611205565b602002602001015160200151905060006002811115610160576101606111d9565b816002811115610172576101726111d9565b14156101c1576101bc85838151811061018d5761018d611205565b6020026020010151600001518684815181106101ab576101ab611205565b602002602001015160400151610319565b6102c5565b60018160028111156101d5576101d56111d9565b141561021f576101bc8583815181106101f0576101f0611205565b60200260200101516000015186848151811061020e5761020e611205565b60200260200101516040015161047a565b6002816002811115610233576102336111d9565b141561027d576101bc85838151811061024e5761024e611205565b60200260200101516000015186848151811061026c5761026c611205565b6020026020010151604001516105ec565b60405162461bcd60e51b815260206004820152601960248201527f496e636f72726563744661636574437574416374696f6e2829000000000000006044820152606401610114565b50600101610122565b507f8faa70878671ccd212d20771b795c50af8fd3ff6cf27f4bde57e5d4de0aeb67383838360405161030293929190610e7b565b60405180910390a161031482826106dd565b505050565b80516103375760405162461bcd60e51b815260040161011490610f95565b6000805160206112328339815191526001600160a01b0383166103935760405162461bcd60e51b815260206004820152601460248201527346616365744164647265737349735a65726f282960601b6044820152606401610114565b6001600160a01b03831660009081526001820160205260409020546001600160601b0381166103c6576103c68285610864565b60005b83518110156100b15760008482815181106103e6576103e6611205565b6020908102919091018101516001600160e01b031981166000908152918690526040909120549091506001600160a01b031680156104605760405162461bcd60e51b815260206004820152601760248201527646756e6374696f6e416c7265616479457869737473282960481b6044820152606401610114565b61046c8583868a6108b5565b5050600191820191016103c9565b80516104985760405162461bcd60e51b815260040161011490610f95565b6000805160206112328339815191526001600160a01b0383166104f45760405162461bcd60e51b815260206004820152601460248201527346616365744164647265737349735a65726f282960601b6044820152606401610114565b6001600160a01b03831660009081526001820160205260409020546001600160601b038116610527576105278285610864565b60005b83518110156100b157600084828151811061054757610547611205565b6020908102919091018101516001600160e01b031981166000908152918690526040909120549091506001600160a01b039081169087168114156105c75760405162461bcd60e51b815260206004820152601760248201527646756e6374696f6e416c7265616479457869737473282960481b6044820152606401610114565b6105d2858284610955565b6105de8583868a6108b5565b50506001918201910161052a565b805161060a5760405162461bcd60e51b815260040161011490610f95565b6000805160206112328339815191526001600160a01b038316156106705760405162461bcd60e51b815260206004820152601760248201527f46616365744164647265737349734e6f745a65726f28290000000000000000006044820152606401610114565b60005b82518110156106d757600083828151811061069057610690611205565b6020908102919091018101516001600160e01b031981166000908152918590526040909120549091506001600160a01b03166106cd848284610955565b5050600101610673565b50505050565b6001600160a01b03821661073e5780511561073a5760405162461bcd60e51b815260206004820152601d60248201527f496e69745a65726f42757443616c6c646174614e6f74456d70747928290000006044820152606401610114565b5050565b805161078c5760405162461bcd60e51b815260206004820152601d60248201527f43616c6c64617461456d707479427574496e69744e6f745a65726f28290000006044820152606401610114565b6001600160a01b03821630146107a5576107a582610cc9565b600080836001600160a01b0316836040516107c09190610e5f565b600060405180830381855af49150503d80600081146107fb576040519150601f19603f3d011682016040523d82523d6000602084013e610800565b606091505b5091509150816106d75780511561082b578060405162461bcd60e51b81526004016101149190610f7b565b60405162461bcd60e51b815260206004820152600e60248201526d496e69745265766572746564282960901b6044820152606401610114565b61086d81610cc9565b6002820180546001600160a01b0390921660008181526001948501602090815260408220860185905594840183559182529290200180546001600160a01b0319169091179055565b6001600160e01b0319831660008181526020868152604080832080546001600160601b03909716600160a01b026001600160a01b0397881617815594909516808352600180890183529583208054968701815583528183206008870401805460e09890981c60046007909816979097026101000a96870263ffffffff9097021990971695909517909555529290915281546001600160a01b031916179055565b6001600160a01b0382166109a45760405162461bcd60e51b815260206004820152601660248201527546756e6374696f6e446f65734e6f744578697374282960501b6044820152606401610114565b6001600160a01b0382163014156109f55760405162461bcd60e51b815260206004820152601560248201527446756e6374696f6e4973496d6d757461626c65282960581b6044820152606401610114565b6001600160e01b03198116600090815260208481526040808320546001600160a01b0386168452600180880190935290832054600160a01b9091046001600160601b03169291610a4491611040565b9050808214610b36576001600160a01b03841660009081526001860160205260408120805483908110610a7957610a79611205565b600091825260208083206008830401546001600160a01b038916845260018a019091526040909220805460079092166004026101000a90920460e01b925082919085908110610aca57610aca611205565b600091825260208083206008830401805463ffffffff60079094166004026101000a938402191660e09590951c929092029390931790556001600160e01b03199290921682528690526040902080546001600160a01b0316600160a01b6001600160601b038516021790555b6001600160a01b03841660009081526001860160205260409020805480610b5f57610b5f6111ef565b60008281526020808220600860001990940193840401805463ffffffff600460078716026101000a0219169055919092556001600160e01b0319851682528690526040812055806100b1576002850154600090610bbe90600190611040565b6001600160a01b0386166000908152600180890160205260409091200154909150808214610c6d576000876002018381548110610bfd57610bfd611205565b6000918252602090912001546002890180546001600160a01b039092169250829184908110610c2e57610c2e611205565b600091825260208083209190910180546001600160a01b0319166001600160a01b03948516179055929091168152600189810190925260409020018190555b86600201805480610c8057610c806111ef565b60008281526020808220830160001990810180546001600160a01b03191690559092019092556001600160a01b0388168252600189810190915260408220015550505050505050565b803b8061073a5760405162461bcd60e51b81526020600482015260156024820152744661636574436f6e7461696e734e6f436f6465282960581b6044820152606401610114565b600081356001600160a81b0381168114610d2957600080fd5b6001600160a01b031692915050565b60008083601f840112610d4a57600080fd5b50813567ffffffffffffffff811115610d6257600080fd5b602083019150836020828501011115610d7a57600080fd5b9250929050565b600080600080600060608688031215610d9957600080fd5b853567ffffffffffffffff80821115610db157600080fd5b818801915088601f830112610dc557600080fd5b813581811115610dd457600080fd5b8960208260051b8501011115610de957600080fd5b60208301975080965050610dff60208901610d10565b94506040880135915080821115610e1557600080fd5b50610e2288828901610d38565b969995985093965092949392505050565b60008151808452610e4b8160208601602086016111ad565b601f01601f19169290920160200192915050565b60008251610e718184602087016111ad565b9190910192915050565b60006060808301818452808751808352608092508286019150828160051b8701016020808b0160005b84811015610f4b57898403607f19018652815180516001600160a01b03168552838101518986019060038110610eea57634e487b7160e01b600052602160045260246000fd5b868601526040918201519186018a905281519081905290840190600090898701905b80831015610f365783516001600160e01b0319168252928601926001929092019190860190610f0c565b50978501979550505090820190600101610ea4565b50506001600160a01b038a16908801528681036040880152610f6d8189610e33565b9a9950505050505050505050565b602081526000610f8e6020830184610e33565b9392505050565b6020808252601390820152724e6f53656c6563746f7273496e46616365282960681b604082015260600190565b6040516060810167ffffffffffffffff81118282101715610fe557610fe561121b565b60405290565b604051601f8201601f1916810167ffffffffffffffff811182821017156110145761101461121b565b604052919050565b600067ffffffffffffffff8211156110365761103661121b565b5060051b60200190565b60008282101561106057634e487b7160e01b600052601160045260246000fd5b500390565b60006110786110738461101c565b610feb565b838152602080820191908460053688821b8301111561109657600080fd5b60005b888110156111a057823567ffffffffffffffff808211156110b957600080fd5b818a019150606082360312156110ce57600080fd5b6110d6610fc2565b6110df83610d10565b815286830135600381106110f257600080fd5b818801526040838101358381111561110957600080fd5b939093019236601f85011261111d57600080fd5b8335925061112d6110738461101c565b83815288810190858a0136868a1b88018c01111561114a57600080fd5b600096505b858710156111835780356001600160e01b03198116811461116f57600080fd5b835260019690960195918a01918a0161114f565b509183019190915250885250509483019491830191600101611099565b5092979650505050505050565b60005b838110156111c85781810151838201526020016111b0565b838111156106d75750506000910152565b634e487b7160e01b600052602160045260246000fd5b634e487b7160e01b600052603160045260246000fd5b634e487b7160e01b600052603260045260246000fd5b634e487b7160e01b600052604160045260246000fdfec8fcad8db84d3cc18b4c41d551ea0ee66dd599cde068d998e57d5e09332c131ca26474726f6e58221220fad5e3b02ed1b490f73ff507cfbabd03c6782510adfceaeb637e7be011e3e7b664736f6c63430008060033",
    "source": "// SPDX-License-Identifier: MIT\npragma solidity ^0.8.6;\n\nimport \"../Interfaces/IDiamondCut.sol\";\nimport \"../Libraries/LibDiamond.sol\";\n\ncontract DiamondCutFacet is IDiamondCut {\n    /// @notice Add/replace/remove any number of functions and optionally execute\n    ///         a function with delegatecall\n    /// @param _diamondCut Contains the facet addresses and function selectors\n    /// @param _init The address of the contract or facet to execute _calldata\n    /// @param _calldata A function call, including function selector and arguments\n    ///                  _calldata is executed with delegatecall on _init\n    function diamondCut(\n        FacetCut[] calldata _diamondCut,\n        address _init,\n        bytes calldata _calldata\n    ) external override {\n        LibDiamond.enforceIsContractOwner();\n        LibDiamond.diamondCut(_diamondCut, _init, _calldata);\n    }\n}\n",
    "sourcePath": "/Users/family/Desktop/Kana/kana-aggregator-solidity/tronboxproject/contracts/Facets/DiamondCutFacet.sol",
    "compiler": {
        "name": "solc",
        "version": "0.8.6+commit.0e36fba0.mod.Emscripten.clang"
    },
    "schemaVersion": "2.0.1",
    "updatedAt": "2022-12-21T14:25:57.739Z"
}