{
    "address": "TTTJQzki7PAkEszNPqYxU9mqnbzZvsWb24",
    "contractName": "GenericSwapFacet",
    "abi": [
        {
            "anonymous": false,
            "inputs": [
                {
                    "indexed": true,
                    "internalType": "bytes32",
                    "name": "transactionId",
                    "type": "bytes32"
                },
                {
                    "indexed": false,
                    "internalType": "string",
                    "name": "integrator",
                    "type": "string"
                },
                {
                    "indexed": false,
                    "internalType": "string",
                    "name": "referrer",
                    "type": "string"
                },
                {
                    "indexed": false,
                    "internalType": "address",
                    "name": "fromAssetId",
                    "type": "address"
                },
                {
                    "indexed": false,
                    "internalType": "address",
                    "name": "toAssetId",
                    "type": "address"
                },
                {
                    "indexed": false,
                    "internalType": "uint256",
                    "name": "fromAmount",
                    "type": "uint256"
                },
                {
                    "indexed": false,
                    "internalType": "uint256",
                    "name": "toAmount",
                    "type": "uint256"
                }
            ],
            "name": "KanaSwappedGeneric",
            "type": "event"
        },
        {
            "anonymous": false,
            "inputs": [
                {
                    "indexed": true,
                    "internalType": "bytes32",
                    "name": "transactionId",
                    "type": "bytes32"
                },
                {
                    "indexed": false,
                    "internalType": "address",
                    "name": "receivingAssetId",
                    "type": "address"
                },
                {
                    "indexed": false,
                    "internalType": "address",
                    "name": "receiver",
                    "type": "address"
                },
                {
                    "indexed": false,
                    "internalType": "uint256",
                    "name": "amount",
                    "type": "uint256"
                },
                {
                    "indexed": false,
                    "internalType": "uint256",
                    "name": "timestamp",
                    "type": "uint256"
                }
            ],
            "name": "KanaTransferCompleted",
            "type": "event"
        },
        {
            "anonymous": false,
            "inputs": [
                {
                    "components": [
                        {
                            "internalType": "bytes32",
                            "name": "transactionId",
                            "type": "bytes32"
                        },
                        {
                            "internalType": "string",
                            "name": "bridge",
                            "type": "string"
                        },
                        {
                            "internalType": "string",
                            "name": "integrator",
                            "type": "string"
                        },
                        {
                            "internalType": "address",
                            "name": "referrer",
                            "type": "address"
                        },
                        {
                            "internalType": "address",
                            "name": "sendingAssetId",
                            "type": "address"
                        },
                        {
                            "internalType": "bytes32",
                            "name": "receiver",
                            "type": "bytes32"
                        },
                        {
                            "internalType": "uint256",
                            "name": "minAmount",
                            "type": "uint256"
                        },
                        {
                            "internalType": "uint256",
                            "name": "destinationChainId",
                            "type": "uint256"
                        },
                        {
                            "internalType": "bool",
                            "name": "hasSourceSwaps",
                            "type": "bool"
                        },
                        {
                            "internalType": "bool",
                            "name": "hasDestinationCall",
                            "type": "bool"
                        }
                    ],
                    "indexed": false,
                    "internalType": "struct IKana.BridgeData",
                    "name": "bridgeData",
                    "type": "tuple"
                }
            ],
            "name": "KanaTransferStarted",
            "type": "event"
        },
        {
            "inputs": [],
            "name": "getFee",
            "outputs": [
                {
                    "internalType": "uint32",
                    "name": "",
                    "type": "uint32"
                }
            ],
            "stateMutability": "view",
            "type": "function"
        },
        {
            "inputs": [
                {
                    "internalType": "uint32",
                    "name": "_fee",
                    "type": "uint32"
                }
            ],
            "name": "setFee",
            "outputs": [],
            "stateMutability": "nonpayable",
            "type": "function"
        },
        {
            "inputs": [
                {
                    "internalType": "bytes32",
                    "name": "_transactionId",
                    "type": "bytes32"
                },
                {
                    "internalType": "string",
                    "name": "_integrator",
                    "type": "string"
                },
                {
                    "internalType": "string",
                    "name": "_referrer",
                    "type": "string"
                },
                {
                    "internalType": "address payable",
                    "name": "_receiver",
                    "type": "address"
                },
                {
                    "internalType": "uint256",
                    "name": "_minAmount",
                    "type": "uint256"
                },
                {
                    "components": [
                        {
                            "internalType": "address",
                            "name": "callTo",
                            "type": "address"
                        },
                        {
                            "internalType": "address",
                            "name": "approveTo",
                            "type": "address"
                        },
                        {
                            "internalType": "address",
                            "name": "sendingAssetId",
                            "type": "address"
                        },
                        {
                            "internalType": "address",
                            "name": "receivingAssetId",
                            "type": "address"
                        },
                        {
                            "internalType": "uint256",
                            "name": "fromAmount",
                            "type": "uint256"
                        },
                        {
                            "internalType": "bytes",
                            "name": "callData",
                            "type": "bytes"
                        },
                        {
                            "internalType": "bool",
                            "name": "requiresDeposit",
                            "type": "bool"
                        }
                    ],
                    "internalType": "struct LibSwap.SwapData[]",
                    "name": "_swapData",
                    "type": "tuple[]"
                }
            ],
            "name": "swapTokensGeneric",
            "outputs": [],
            "stateMutability": "payable",
            "type": "function"
        }
    ],
    "bytecode": "0x608060405234801561001057600080fd5b50d3801561001d57600080fd5b50d2801561002a57600080fd5b506120218061003a6000396000f3fe6080604052600436106100345760003560e01c80631ab971ab146100395780634630a0d814610075578063ced72f8714610088575b600080fd5b34801561004557600080fd5b50d3801561005257600080fd5b50d2801561005f57600080fd5b5061007361006e366004611bad565b6100cb565b005b610073610083366004611a21565b610154565b34801561009457600080fd5b50d380156100a157600080fd5b50d280156100ae57600080fd5b506000546040805163ffffffff9092168252519081900360200190f35b7fc8fcad8db84d3cc18b4c41d551ea0ee66dd599cde068d998e57d5e09332c1320546001600160a01b031633146101385760405162461bcd60e51b815260206004820152600c60248201526b49734e6f744f776e6572282960a01b60448201526064015b60405180910390fd5b6000805463ffffffff191663ffffffff92909216919091179055565b8360006101613447611e6b565b7fa65bb2f450488ab0858c00edc14abc5297769bf42adb48cfb77752890e8b697b805491925090600114156101cc5760405162461bcd60e51b81526020600482015260116024820152705265656e7472616e63794572726f72282960781b604482015260640161012f565b600181556001600160a01b03871661021a5760405162461bcd60e51b8152602060048201526011602482015270496e76616c69645265636569766572282960781b604482015260640161012f565b60006102298d8888888c610379565b90506000868661023a600182611e6b565b81811061024957610249611f99565b905060200281019061025b9190611d50565b61026c9060808101906060016119d7565b90506000610279836104e0565b6102839084611e6b565b9050610290828b8361050b565b8e7ff759b8879b7c58816b62c8cb8572a777bed770ca90e4a5b3bb4c7a8f7e94cf138f8f8f8f8d8d60008181106102c9576102c9611f99565b90506020028101906102db9190611d50565b6102ec9060608101906040016119d7565b888f8f600081811061030057610300611f99565b90506020028101906103129190611d50565b608001358b60405161032b989796959493929190611c28565b60405180910390a2505060009182905550479082821161034c576000610356565b6103568383611e6b565b9050801561036a5761036a6000858361050b565b50505050505050505050505050565b600082806103c05760405162461bcd60e51b81526020600482015260146024820152734e6f537761704461746150726f7669646564282960601b604482015260640161012f565b600085856103cf600185611e6b565b8181106103de576103de611f99565b90506020028101906103f09190611d50565b6104019060808101906060016119d7565b9050600061040e82610534565b90506001600160a01b03821661042b576104283482611e6b565b90505b600061043788886105c9565b905061044388886106c8565b6104508a89898985610729565b60008261045c85610534565b6104669190611e6b565b9050898110156104d25760405162461bcd60e51b815260206004820152603160248201527f43756d756c6174697665536c697070616765546f6f48696768285f6d696e416d6044820152706f756e742c206e657742616c616e63652960781b606482015260840161012f565b9a9950505050505050505050565b600080548190612710906104fa9063ffffffff1685611e4c565b6105049190611e2a565b9392505050565b6001600160a01b0383161561052a57610525838383610ab1565b505050565b6105258282610bb4565b60006001600160a01b038216156105c1576040516370a0823160e01b81523060048201526001600160a01b038316906370a082319060240160206040518083038186803b15801561058457600080fd5b505afa158015610598573d6000803e3d6000fd5b505050506040513d601f19601f820116820180604052508101906105bc9190611b94565b6105c3565b475b92915050565b60608160008167ffffffffffffffff8111156105e7576105e7611faf565b604051908082528060200260200182016040528015610610578160200160208202803683370190505b5090506000805b838110156106bd5786868281811061063157610631611f99565b90506020028101906106439190611d50565b6106549060808101906060016119d7565b915061065f82610534565b83828151811061067157610671611f99565b60209081029190910101526001600160a01b0382166106b5573483828151811061069d5761069d611f99565b602002602001018181516106b19190611e6b565b9052505b600101610617565b509095945050505050565b60005b818110156105255760008383838181106106e7576106e7611f99565b90506020028101906106f99190611d50565b61070290611eb2565b90508060c00151156107205761072081604001518260800151610d14565b506001016106cb565b8383838382600181146109bb5760008585610745600185611e6b565b81811061075457610754611f99565b90506020028101906107669190611d50565b6107779060808101906060016119d7565b9050600089815b8181101561090157368d8d8381811061079957610799611f99565b90506020028101906107ab9190611d50565b90506107cd6107c060608301604084016119d7565b6001600160a01b03161590565b8061082357506108236107e660408301602084016119d7565b6001600160a01b031660009081527fbcebf0a9ab66af8ebd1c7c5806111adc185225ddfcbffe27e46ed5ac66b89048602052604090205460ff1690565b801561083a575061083a6107e660208301836119d7565b80156108a757506108a761085160a0830183611d09565b61086091600491600091611de8565b61086991611e82565b6001600160e01b03191660009081527fbcebf0a9ab66af8ebd1c7c5806111adc185225ddfcbffe27e46ed5ac66b89049602052604090205460ff1690565b6108ee5760405162461bcd60e51b8152602060048201526018602482015277436f6e747261637443616c6c4e6f74416c6c6f776564282960401b604482015260640161012f565b6108f88f82610e0b565b5060010161077e565b505060005b610911600185611e6b565b8110156109b357600088888381811061092c5761092c611f99565b905060200281019061093e9190611d50565b61094f9060808101906060016119d7565b9050836001600160a01b0316816001600160a01b0316146109aa5785828151811061097c5761097c611f99565b602002602001015161098d82610534565b6109979190611e6b565b925082156109aa576109aa81888561050b565b50600101610906565b505050610aa5565b8760005b81811015610aa257368b8b838181106109da576109da611f99565b90506020028101906109ec9190611d50565b9050610a016107c060608301604084016119d7565b80610a1a5750610a1a6107e660408301602084016119d7565b8015610a315750610a316107e660208301836119d7565b8015610a485750610a4861085160a0830183611d09565b610a8f5760405162461bcd60e51b8152602060048201526018602482015277436f6e747261637443616c6c4e6f74416c6c6f776564282960401b604482015260640161012f565b610a998d82610e0b565b506001016109bf565b50505b50505050505050505050565b6001600160a01b038316610b075760405162461bcd60e51b815260206004820152601b60248201527f4e756c6c4164647249734e6f74416e4552433230546f6b656e28290000000000604482015260640161012f565b6040516370a0823160e01b81523060048201526000906001600160a01b038516906370a082319060240160206040518083038186803b158015610b4957600080fd5b505afa158015610b5d573d6000803e3d6000fd5b505050506040513d601f19601f82011682018060405250810190610b819190611b94565b905080821115610ba35760405162461bcd60e51b815260040161012f90611cdc565b610bae8484846110df565b50505050565b6001600160a01b038216610c065760405162461bcd60e51b81526020600482015260196024820152784e6f5472616e73666572546f4e756c6c41646472657373282960381b604482015260640161012f565b47811115610c715760405162461bcd60e51b815260206004820152603260248201527f496e73756666696369656e7442616c616e636528616d6f756e742c20616464726044820152716573732874686973292e62616c616e63652960701b606482015260840161012f565b6000826001600160a01b03168260405160006040518083038185875af1925050503d8060008114610cbe576040519150601f19603f3d011682016040523d82523d6000602084013e610cc3565b606091505b50509050806105255760405162461bcd60e51b815260206004820152601b60248201527f4e617469766541737365745472616e736665724661696c656428290000000000604482015260640161012f565b6001600160a01b038216610d465780341015610d425760405162461bcd60e51b815260040161012f90611cb3565b5050565b80610d635760405162461bcd60e51b815260040161012f90611cb3565b6040516370a0823160e01b81523360048201526000906001600160a01b038416906370a082319060240160206040518083038186803b158015610da557600080fd5b505afa158015610db9573d6000803e3d6000fd5b505050506040513d601f19601f82011682018060405250810190610ddd9190611b94565b905081811015610dff5760405162461bcd60e51b815260040161012f90611cdc565b61052583333085611142565b610e21610e1b60208301836119d7565b3b151590565b610e615760405162461bcd60e51b8152602060048201526011602482015270496e76616c6964436f6e7472616374282960781b604482015260640161012f565b608081013580610eb35760405162461bcd60e51b815260206004820152601760248201527f4e6f5377617046726f6d5a65726f42616c616e63652829000000000000000000604482015260640161012f565b6000610ec86107c060608501604086016119d7565b610ed3576000610ed9565b82608001355b90506000610ef5610ef060608601604087016119d7565b610534565b90506000610f0c610ef060808701606088016119d7565b905082610f4057610f40610f2660608701604088016119d7565b610f3660408801602089016119d7565b8760800135611322565b8460800135821015610f645760405162461bcd60e51b815260040161012f90611cdc565b600080610f7460208801886119d7565b6001600160a01b031685610f8b60a08a018a611d09565b604051610f99929190611bfc565b60006040518083038185875af1925050503d8060008114610fd6576040519150601f19603f3d011682016040523d82523d6000602084013e610fdb565b606091505b50915091508161100c576000610ff08261142e565b90508060405162461bcd60e51b815260040161012f9190611c80565b6000611021610ef060808a0160608b016119d7565b90507f7bfdfdb5e3a3776976e53cb0607060f54c5312701c8cba1155cc4d5394440b388961105260208b018b6119d7565b61106260608c0160408d016119d7565b61107260808d0160608e016119d7565b8c60800135898711611084578661108e565b61108e8a88611e6b565b604080519687526001600160a01b0395861660208801529385169386019390935292166060840152608083019190915260a08201524260c082015260e00160405180910390a1505050505050505050565b6040516001600160a01b03831660248201526044810182905261052590849063a9059cbb60e01b906064015b60408051601f198184030181529190526020810180516001600160e01b03166001600160e01b0319909316929092179091526114a5565b6001600160a01b0384166111985760405162461bcd60e51b815260206004820152601b60248201527f4e756c6c4164647249734e6f74416e4552433230546f6b656e28290000000000604482015260640161012f565b6001600160a01b0382166111ea5760405162461bcd60e51b81526020600482015260196024820152784e6f5472616e73666572546f4e756c6c41646472657373282960381b604482015260640161012f565b6040516370a0823160e01b81526001600160a01b03838116600483015285916000918316906370a082319060240160206040518083038186803b15801561123057600080fd5b505afa158015611244573d6000803e3d6000fd5b505050506040513d601f19601f820116820180604052508101906112689190611b94565b905061127682868686611577565b6040516370a0823160e01b81526001600160a01b038581166004830152849183918516906370a082319060240160206040518083038186803b1580156112bb57600080fd5b505afa1580156112cf573d6000803e3d6000fd5b505050506040513d601f19601f820116820180604052508101906112f39190611b94565b6112fd9190611e6b565b1461131a5760405162461bcd60e51b815260040161012f90611cb3565b505050505050565b6001600160a01b03831661133557505050565b6001600160a01b03821661138b5760405162461bcd60e51b815260206004820152601c60248201527f4e756c6c4164647249734e6f744156616c69645370656e646572282900000000604482015260640161012f565b604051636eb1769f60e11b81523060048201526001600160a01b0383811660248301526000919085169063dd62ed3e9060440160206040518083038186803b1580156113d657600080fd5b505afa1580156113ea573d6000803e3d6000fd5b505050506040513d601f19601f8201168201806040525081019061140e9190611b94565b905081811015610bae57610bae848461142984600019611e6b565b6115af565b606060448251101561147357505060408051808201909152601d81527f5472616e73616374696f6e2072657665727465642073696c656e746c79000000602082015290565b600061148f60048085516114879190611e6b565b859190611670565b9050808060200190518101906105049190611b1d565b60006114fa826040518060400160405280602081526020017f5361666545524332303a206c6f772d6c6576656c2063616c6c206661696c6564815250856001600160a01b031661177f9092919063ffffffff16565b80519091501561052557808060200190518101906115189190611a04565b6105255760405162461bcd60e51b815260206004820152602a60248201527f5361666545524332303a204552433230206f7065726174696f6e20646964206e6044820152691bdd081cdd58d8d9595960b21b606482015260840161012f565b6040516001600160a01b0380851660248301528316604482015260648101829052610bae9085906323b872dd60e01b9060840161110b565b604051636eb1769f60e11b81523060048201526001600160a01b038381166024830152600091839186169063dd62ed3e9060440160206040518083038186803b1580156115fb57600080fd5b505afa15801561160f573d6000803e3d6000fd5b505050506040513d601f19601f820116820180604052508101906116339190611b94565b61163d9190611e12565b6040516001600160a01b038516602482015260448101829052909150610bae90859063095ea7b360e01b9060640161110b565b60608161167e81601f611e12565b10156116be5760405162461bcd60e51b815260206004820152600f60248201526e536c6963654f766572666c6f77282960881b604482015260640161012f565b6116c88284611e12565b8451101561170d5760405162461bcd60e51b8152602060048201526012602482015271536c6963654f75744f66426f756e6473282960701b604482015260640161012f565b60608215801561172c5760405191506000825260208201604052611776565b6040519150601f8416801560200281840101858101878315602002848b0101015b8183101561176557805183526020928301920161174d565b5050858452601f01601f1916604052505b50949350505050565b606061178e8484600085611796565b949350505050565b6060824710156117f75760405162461bcd60e51b815260206004820152602660248201527f416464726573733a20696e73756666696369656e742062616c616e636520666f6044820152651c8818d85b1b60d21b606482015260840161012f565b600080866001600160a01b031685876040516118139190611c0c565b60006040518083038185875af1925050503d8060008114611850576040519150601f19603f3d011682016040523d82523d6000602084013e611855565b606091505b509150915061186687838387611871565b979650505050505050565b606083156118dd5782516118d6576001600160a01b0385163b6118d65760405162461bcd60e51b815260206004820152601d60248201527f416464726573733a2063616c6c20746f206e6f6e2d636f6e7472616374000000604482015260640161012f565b508161178e565b61178e83838151156118f25781518083602001fd5b8060405162461bcd60e51b815260040161012f9190611c80565b6000813561191981611fc5565b6001600160a01b031692915050565b803561193381611fdd565b919050565b600082601f83011261194957600080fd5b813561195c61195782611dc0565b611d8f565b81815284602083860101111561197157600080fd5b816020850160208301376000918101602001919091529392505050565b60008083601f8401126119a057600080fd5b50813567ffffffffffffffff8111156119b857600080fd5b6020830191508360208285010111156119d057600080fd5b9250929050565b6000602082840312156119e957600080fd5b81356119f481611fc5565b6001600160a01b03169392505050565b600060208284031215611a1657600080fd5b815161050481611fdd565b600080600080600080600080600060c08a8c031215611a3f57600080fd5b8935985060208a013567ffffffffffffffff80821115611a5e57600080fd5b611a6a8d838e0161198e565b909a50985060408c0135915080821115611a8357600080fd5b611a8f8d838e0161198e565b909850965060608c01359150611aa482611fc5565b6001600160a01b0391909116945060808b0135935060a08b01359080821115611acc57600080fd5b818c0191508c601f830112611ae057600080fd5b813581811115611aef57600080fd5b8d60208260051b8501011115611b0457600080fd5b6020830194508093505050509295985092959850929598565b600060208284031215611b2f57600080fd5b815167ffffffffffffffff811115611b4657600080fd5b8201601f81018413611b5757600080fd5b8051611b6561195782611dc0565b818152856020838501011115611b7a57600080fd5b611b8b826020830160208601611f57565b95945050505050565b600060208284031215611ba657600080fd5b5051919050565b600060208284031215611bbf57600080fd5b813563ffffffff8116811461050457600080fd5b81835281816020850137506000828201602090810191909152601f909101601f19169091010190565b8183823760009101908152919050565b60008251611c1e818460208701611f57565b9190910192915050565b60c081526000611c3c60c083018a8c611bd3565b8281036020840152611c4f81898b611bd3565b6001600160a01b03978816604085015295909616606083015250608081019290925260a09091015295945050505050565b6020815260008251806020840152611c9f816040850160208701611f57565b601f01601f19169190910160400192915050565b6020808252600f908201526e496e76616c6964416d6f756e74282960881b604082015260600190565b602080825260139082015272496e73756666696369656e7442616c616e636560681b604082015260600190565b6000808335601e19843603018112611d2057600080fd5b83018035915067ffffffffffffffff821115611d3b57600080fd5b6020019150368190038213156119d057600080fd5b6000823560de19833603018112611c1e57600080fd5b60405160e0810167ffffffffffffffff81118282101715611d8957611d89611faf565b60405290565b604051601f8201601f1916810167ffffffffffffffff81118282101715611db857611db8611faf565b604052919050565b600067ffffffffffffffff821115611dda57611dda611faf565b50601f01601f191660200190565b60008085851115611df857600080fd5b83861115611e0557600080fd5b5050820193919092039150565b60008219821115611e2557611e25611f83565b500190565b600082611e4757634e487b7160e01b600052601260045260246000fd5b500490565b6000816000190483118215151615611e6657611e66611f83565b500290565b600082821015611e7d57611e7d611f83565b500390565b6001600160e01b03198135818116916004851015611eaa5780818660040360031b1b83161692505b505092915050565b600060e08236031215611ec457600080fd5b611ecc611d66565b611ed58361190c565b8152611ee36020840161190c565b6020820152611ef46040840161190c565b6040820152611f056060840161190c565b60608201526080830135608082015260a083013567ffffffffffffffff811115611f2e57600080fd5b611f3a36828601611938565b60a083015250611f4c60c08401611928565b60c082015292915050565b60005b83811015611f72578181015183820152602001611f5a565b83811115610bae5750506000910152565b634e487b7160e01b600052601160045260246000fd5b634e487b7160e01b600052603260045260246000fd5b634e487b7160e01b600052604160045260246000fd5b6001600160a81b0381168114611fda57600080fd5b50565b8015158114611fda57600080fdfea26474726f6e582212206e9a5de4c6f1ea9278ad92f909a9fc62932f8bb571329eea3b87a2c75194363064736f6c63430008060033",
    "source": "// SPDX-License-Identifier: MIT\npragma solidity ^0.8.6;\n\nimport \"../Interfaces/IKana.sol\";\nimport \"../Libraries/LibAsset.sol\";\nimport \"../Libraries/LibAllowList.sol\";\nimport \"../Helpers/ReentrancyGuard.sol\";\nimport \"../Helpers/SwapperV2.sol\";\nimport \"../Helpers/Validatable.sol\";\nimport \"../Libraries/LibUtil.sol\";\nimport \"../Errors/GenericErrors.sol\";\nimport \"../Libraries/LibDiamond.sol\";\n\n/// @title Generic Swap Facet\n/// @author LI.FI (https://li.fi)\n/// @notice Provides functionality for swapping through ANY APPROVED DEX\n/// @dev Uses calldata to execute APPROVED arbitrary methods on DEXs\ncontract GenericSwapFacet is IKana, ReentrancyGuard, SwapperV2, Validatable {\n    /// Events ///\n\n    event KanaSwappedGeneric(\n        bytes32 indexed transactionId,\n        string integrator,\n        string referrer,\n        address fromAssetId,\n        address toAssetId,\n        uint256 fromAmount,\n        uint256 toAmount\n    );\n\n    uint32 FeePercentage;\n\n    function setFee(uint32 _fee) external {\n        if (msg.sender != LibDiamond.contractOwner()) revert(\"IsNotOwner()\");\n        FeePercentage = _fee;\n    }\n\n    function getFee() external view returns (uint32) {\n        return FeePercentage;\n    }\n\n    function _calculateFee(uint256 postSwapBalance)\n        internal\n        view\n        returns (uint256)\n    {\n        uint256 fee = (postSwapBalance * FeePercentage) / 10000;\n        return fee;\n    }\n\n    /// External Methods ///\n\n    /// @notice Performs multiple swaps in one transaction\n    /// @param _transactionId the transaction id associated with the operation\n    /// @param _integrator the name of the integrator\n    /// @param _referrer the address of the referrer\n    /// @param _receiver the address to receive the swapped tokens into (also excess tokens)\n    /// @param _minAmount the minimum amount of the final asset to receive\n    /// @param _swapData an object containing swap related data to perform swaps before bridging\n    function swapTokensGeneric(\n        bytes32 _transactionId,\n        string calldata _integrator,\n        string calldata _referrer,\n        address payable _receiver,\n        uint256 _minAmount,\n        LibSwap.SwapData[] calldata _swapData\n    ) external payable refundExcessNative(_receiver) nonReentrant {\n        if (LibUtil.isZeroAddress(_receiver)) {\n            revert(\"InvalidReceiver()\");\n        }\n\n        uint256 postSwapBalance = _depositAndSwap(\n            _transactionId,\n            _minAmount,\n            _swapData,\n            _receiver\n        );\n        address receivingAssetId = _swapData[_swapData.length - 1]\n            .receivingAssetId;\n        uint256 amountOut = postSwapBalance - _calculateFee(postSwapBalance);\n        LibAsset.transferAsset(receivingAssetId, _receiver, amountOut);\n\n        emit KanaSwappedGeneric(\n            _transactionId,\n            _integrator,\n            _referrer,\n            _swapData[0].sendingAssetId,\n            receivingAssetId,\n            _swapData[0].fromAmount,\n            postSwapBalance\n        );\n    }\n}\n",
    "sourcePath": "/Users/family/Desktop/Kana/kana-aggregator-solidity/tronboxproject/contracts/Facets/GenericSwapFacet.sol",
    "compiler": {
        "name": "solc",
        "version": "0.8.6+commit.0e36fba0.mod.Emscripten.clang"
    },
    "schemaVersion": "2.0.1",
    "updatedAt": "2022-12-21T14:25:57.741Z"
}