{
    "address": "TDPhYokWq851SPJAQ8RCwEYuAZoECD3cQu",
    "contractName": "OwnershipFacet",
    "abi": [
        {
            "anonymous": false,
            "inputs": [
                {
                    "indexed": true,
                    "internalType": "address",
                    "name": "_from",
                    "type": "address"
                },
                {
                    "indexed": true,
                    "internalType": "address",
                    "name": "_to",
                    "type": "address"
                }
            ],
            "name": "OwnershipTransferRequested",
            "type": "event"
        },
        {
            "anonymous": false,
            "inputs": [
                {
                    "indexed": true,
                    "internalType": "address",
                    "name": "previousOwner",
                    "type": "address"
                },
                {
                    "indexed": true,
                    "internalType": "address",
                    "name": "newOwner",
                    "type": "address"
                }
            ],
            "name": "OwnershipTransferred",
            "type": "event"
        },
        {
            "inputs": [],
            "name": "cancelOwnershipTransfer",
            "outputs": [],
            "stateMutability": "nonpayable",
            "type": "function"
        },
        {
            "inputs": [],
            "name": "confirmOwnershipTransfer",
            "outputs": [],
            "stateMutability": "nonpayable",
            "type": "function"
        },
        {
            "inputs": [],
            "name": "owner",
            "outputs": [
                {
                    "internalType": "address",
                    "name": "owner_",
                    "type": "address"
                }
            ],
            "stateMutability": "view",
            "type": "function"
        },
        {
            "inputs": [
                {
                    "internalType": "address",
                    "name": "_newOwner",
                    "type": "address"
                }
            ],
            "name": "transferOwnership",
            "outputs": [],
            "stateMutability": "nonpayable",
            "type": "function"
        }
    ],
    "bytecode": "0x608060405234801561001057600080fd5b50d3801561001d57600080fd5b50d2801561002a57600080fd5b506104f08061003a6000396000f3fe608060405234801561001057600080fd5b50d3801561001d57600080fd5b50d2801561002a57600080fd5b50600436106100665760003560e01c806323452b9c1461006b5780637200b829146100755780638da5cb5b1461007d578063f2fde38b146100a1575b600080fd5b6100736100b4565b005b610073610149565b610085610219565b6040516001600160a01b03909116815260200160405180910390f35b6100736100af366004610481565b610228565b6100bc61034a565b7f4a79a9c392d2a3b2677466fc981b2ba255e15dbb2d3dd49bba3c315b7a0e567880546001600160a01b03166101395760405162461bcd60e51b815260206004820152601c60248201527f4e6f50656e64696e674f776e6572736869705472616e7366657228290000000060448201526064015b60405180910390fd5b80546001600160a01b0319169055565b7f4a79a9c392d2a3b2677466fc981b2ba255e15dbb2d3dd49bba3c315b7a0e567880546001600160a01b03163381146101b85760405162461bcd60e51b81526020600482015260116024820152704e6f7450656e64696e674f776e6572282960781b6044820152606401610130565b806001600160a01b03166101ca6103be565b6001600160a01b03167f8be0079c531659141344cd1fd0a4f28419497f9722a3daafe3b4186f6b6457e060405160405180910390a3610208816103ec565b5080546001600160a01b0319169055565b60006102236103be565b905090565b61023061034a565b7f4a79a9c392d2a3b2677466fc981b2ba255e15dbb2d3dd49bba3c315b7a0e56786001600160a01b0382166102975760405162461bcd60e51b815260206004820152600d60248201526c4e6f4e756c6c4f776e6572282960981b6044820152606401610130565b61029f6103be565b6001600160a01b0316826001600160a01b031614156103005760405162461bcd60e51b815260206004820152601760248201527f4e65774f776e65724d7573744e6f74426553656c6628290000000000000000006044820152606401610130565b80546001600160a01b0319166001600160a01b038316908117825560405133907fed8889f560326eb138920d842192f0eb3dd22b4f139c87a2c57538e05bae127890600090a35050565b7fc8fcad8db84d3cc18b4c41d551ea0ee66dd599cde068d998e57d5e09332c131c600401546001600160a01b031633146103bc5760405162461bcd60e51b81526020600482015260136024820152724f6e6c79436f6e74726163744f776e6572282960681b6044820152606401610130565b565b7fc8fcad8db84d3cc18b4c41d551ea0ee66dd599cde068d998e57d5e09332c1320546001600160a01b031690565b7fc8fcad8db84d3cc18b4c41d551ea0ee66dd599cde068d998e57d5e09332c132080546001600160a01b031981166001600160a01b038481169182179093556040517fc8fcad8db84d3cc18b4c41d551ea0ee66dd599cde068d998e57d5e09332c131c939092169182907f8be0079c531659141344cd1fd0a4f28419497f9722a3daafe3b4186f6b6457e090600090a3505050565b60006020828403121561049357600080fd5b81356001600160a81b03811681146104aa57600080fd5b6001600160a01b0316939250505056fea26474726f6e58221220f4862c4a272a0dfecef2d44547f589d64aa4c60b95f1a7dfcb44d429fd11653664736f6c63430008060033",
    "source": "// SPDX-License-Identifier: MIT\npragma solidity ^0.8.6;\n\nimport \"../Libraries/LibDiamond.sol\";\nimport \"../Interfaces/IERC173.sol\";\nimport \"../Libraries/LibUtil.sol\";\nimport \"../Libraries/LibAsset.sol\";\n\n/// @title Ownership Facet\n/// @author LI.FI (https://li.fi)\n/// @notice Manages ownership of the LiFi Diamond contract for admin purposes\ncontract OwnershipFacet is IERC173 {\n    /// Storage ///\n\n    bytes32 internal constant NAMESPACE =\n        keccak256(\"com.kana.facets.ownership\");\n    struct Storage {\n        address newOwner;\n    }\n\n    /// Errors ///\n\n    // error NoNullOwner();\n    // error NewOwnerMustNotBeSelf();\n    // error NoPendingOwnershipTransfer();\n    // error NotPendingOwner();\n\n    /// Events ///\n\n    event OwnershipTransferRequested(\n        address indexed _from,\n        address indexed _to\n    );\n\n    /// External Methods ///\n\n    /// @notice Initiates transfer of ownership to a new address\n    /// @param _newOwner the address to transfer ownership to\n    function transferOwnership(address _newOwner) external override {\n        LibDiamond.enforceIsContractOwner();\n        Storage storage s = getStorage();\n\n        if (LibUtil.isZeroAddress(_newOwner)) revert(\"NoNullOwner()\");\n\n        if (_newOwner == LibDiamond.contractOwner())\n            revert(\"NewOwnerMustNotBeSelf()\");\n\n        s.newOwner = _newOwner;\n        emit OwnershipTransferRequested(msg.sender, s.newOwner);\n    }\n\n    /// @notice Cancel transfer of ownership\n    function cancelOwnershipTransfer() external {\n        LibDiamond.enforceIsContractOwner();\n        Storage storage s = getStorage();\n\n        if (LibUtil.isZeroAddress(s.newOwner))\n            revert(\"NoPendingOwnershipTransfer()\");\n        s.newOwner = address(0);\n    }\n\n    /// @notice Confirms transfer of ownership to the calling address (msg.sender)\n    function confirmOwnershipTransfer() external {\n        Storage storage s = getStorage();\n        address _pendingOwner = s.newOwner;\n        if (msg.sender != _pendingOwner) revert(\"NotPendingOwner()\");\n        emit OwnershipTransferred(LibDiamond.contractOwner(), _pendingOwner);\n        LibDiamond.setContractOwner(_pendingOwner);\n        s.newOwner = LibAsset.NULL_ADDRESS;\n    }\n\n    /// @notice Return the current owner address\n    /// @return owner_ The current owner address\n    function owner() external view override returns (address owner_) {\n        owner_ = LibDiamond.contractOwner();\n    }\n\n    /// @dev fetch local storage\n    function getStorage() private pure returns (Storage storage s) {\n        bytes32 namespace = NAMESPACE;\n        // solhint-disable-next-line no-inline-assembly\n        assembly {\n            s.slot := namespace\n        }\n    }\n}\n",
    "sourcePath": "/Users/family/Desktop/Kana/kana-aggregator-solidity/tronboxproject/contracts/Facets/OwnershipFacet.sol",
    "compiler": {
        "name": "solc",
        "version": "0.8.6+commit.0e36fba0.mod.Emscripten.clang"
    },
    "schemaVersion": "2.0.1",
    "updatedAt": "2022-12-21T14:25:57.746Z"
}