{
  "address": "0x90C0BD3406DE4Ba9B2F6aC0fB17b22e0675E7ef6",
  "abi": [
    {
      "inputs": [],
      "name": "ContractCallNotAllowed",
      "type": "error"
    },
    {
      "inputs": [
        {
          "internalType": "uint256",
          "name": "minAmount",
          "type": "uint256"
        },
        {
          "internalType": "uint256",
          "name": "receivedAmount",
          "type": "uint256"
        }
      ],
      "name": "CumulativeSlippageTooHigh",
      "type": "error"
    },
    {
      "inputs": [
        {
          "internalType": "uint256",
          "name": "required",
          "type": "uint256"
        },
        {
          "internalType": "uint256",
          "name": "balance",
          "type": "uint256"
        }
      ],
      "name": "InsufficientBalance",
      "type": "error"
    },
    {
      "inputs": [],
      "name": "InvalidAmount",
      "type": "error"
    },
    {
      "inputs": [],
      "name": "InvalidContract",
      "type": "error"
    },
    {
      "inputs": [],
      "name": "InvalidReceiver",
      "type": "error"
    },
    {
      "inputs": [],
      "name": "NativeAssetTransferFailed",
      "type": "error"
    },
    {
      "inputs": [],
      "name": "NoSwapDataProvided",
      "type": "error"
    },
    {
      "inputs": [],
      "name": "NoSwapFromZeroBalance",
      "type": "error"
    },
    {
      "inputs": [],
      "name": "NoTransferToNullAddress",
      "type": "error"
    },
    {
      "inputs": [],
      "name": "NullAddrIsNotAValidSpender",
      "type": "error"
    },
    {
      "inputs": [],
      "name": "NullAddrIsNotAnERC20Token",
      "type": "error"
    },
    {
      "inputs": [],
      "name": "ReentrancyError",
      "type": "error"
    },
    {
      "inputs": [],
      "name": "SliceOutOfBounds",
      "type": "error"
    },
    {
      "inputs": [],
      "name": "SliceOverflow",
      "type": "error"
    },
    {
      "anonymous": false,
      "inputs": [
        {
          "indexed": true,
          "internalType": "bytes32",
          "name": "transactionId",
          "type": "bytes32"
        },
        {
          "indexed": false,
          "internalType": "string",
          "name": "integrator",
          "type": "string"
        },
        {
          "indexed": false,
          "internalType": "string",
          "name": "referrer",
          "type": "string"
        },
        {
          "indexed": false,
          "internalType": "address",
          "name": "fromAssetId",
          "type": "address"
        },
        {
          "indexed": false,
          "internalType": "address",
          "name": "toAssetId",
          "type": "address"
        },
        {
          "indexed": false,
          "internalType": "uint256",
          "name": "fromAmount",
          "type": "uint256"
        },
        {
          "indexed": false,
          "internalType": "uint256",
          "name": "toAmount",
          "type": "uint256"
        }
      ],
      "name": "KanaSwappedGeneric",
      "type": "event"
    },
    {
      "anonymous": false,
      "inputs": [
        {
          "indexed": true,
          "internalType": "bytes32",
          "name": "transactionId",
          "type": "bytes32"
        },
        {
          "indexed": false,
          "internalType": "address",
          "name": "receivingAssetId",
          "type": "address"
        },
        {
          "indexed": false,
          "internalType": "address",
          "name": "receiver",
          "type": "address"
        },
        {
          "indexed": false,
          "internalType": "uint256",
          "name": "amount",
          "type": "uint256"
        },
        {
          "indexed": false,
          "internalType": "uint256",
          "name": "timestamp",
          "type": "uint256"
        }
      ],
      "name": "KanaTransferCompleted",
      "type": "event"
    },
    {
      "anonymous": false,
      "inputs": [
        {
          "components": [
            {
              "internalType": "bytes32",
              "name": "transactionId",
              "type": "bytes32"
            },
            {
              "internalType": "string",
              "name": "bridge",
              "type": "string"
            },
            {
              "internalType": "string",
              "name": "integrator",
              "type": "string"
            },
            {
              "internalType": "address",
              "name": "referrer",
              "type": "address"
            },
            {
              "internalType": "address",
              "name": "sendingAssetId",
              "type": "address"
            },
            {
              "internalType": "address",
              "name": "receiver",
              "type": "address"
            },
            {
              "internalType": "uint256",
              "name": "minAmount",
              "type": "uint256"
            },
            {
              "internalType": "uint256",
              "name": "destinationChainId",
              "type": "uint256"
            },
            {
              "internalType": "bool",
              "name": "hasSourceSwaps",
              "type": "bool"
            },
            {
              "internalType": "bool",
              "name": "hasDestinationCall",
              "type": "bool"
            }
          ],
          "indexed": false,
          "internalType": "struct IKana.BridgeData",
          "name": "bridgeData",
          "type": "tuple"
        }
      ],
      "name": "KanaTransferStarted",
      "type": "event"
    },
    {
      "inputs": [
        {
          "internalType": "bytes32",
          "name": "_transactionId",
          "type": "bytes32"
        },
        {
          "internalType": "string",
          "name": "_integrator",
          "type": "string"
        },
        {
          "internalType": "string",
          "name": "_referrer",
          "type": "string"
        },
        {
          "internalType": "address payable",
          "name": "_receiver",
          "type": "address"
        },
        {
          "internalType": "uint256",
          "name": "_minAmount",
          "type": "uint256"
        },
        {
          "components": [
            {
              "internalType": "address",
              "name": "callTo",
              "type": "address"
            },
            {
              "internalType": "address",
              "name": "approveTo",
              "type": "address"
            },
            {
              "internalType": "address",
              "name": "sendingAssetId",
              "type": "address"
            },
            {
              "internalType": "address",
              "name": "receivingAssetId",
              "type": "address"
            },
            {
              "internalType": "uint256",
              "name": "fromAmount",
              "type": "uint256"
            },
            {
              "internalType": "bytes",
              "name": "callData",
              "type": "bytes"
            },
            {
              "internalType": "bool",
              "name": "requiresDeposit",
              "type": "bool"
            }
          ],
          "internalType": "struct LibSwap.SwapData[]",
          "name": "_swapData",
          "type": "tuple[]"
        }
      ],
      "name": "swapTokensGeneric",
      "outputs": [],
      "stateMutability": "payable",
      "type": "function"
    }
  ],
  "transactionHash": "0x59b55ce3542faa5b12eb455e320234919b93de99d1183184509294ee687df680",
  "args": [],
  "numDeployments": 2,
  "solcInputHash": "8bddc76ae40a44f7a5a9a572193e04b2",
  "bytecode": "0x608060405234801561001057600080fd5b50612a73806100206000396000f3fe60806040526004361061001e5760003560e01c80634630a0d814610023575b600080fd5b61003d60048036038101906100389190611db6565b61003f565b005b836000344761004e9190611ed4565b9050600061005a610246565b9050600181600001540361009a576040517f29f745a700000000000000000000000000000000000000000000000000000000815260040160405180910390fd5b600181600001819055506100ad87610273565b156100e4576040517f1e4ec46b00000000000000000000000000000000000000000000000000000000815260040160405180910390fd5b60006100f38d8888888c6102ab565b9050600086866001898990506101099190611ed4565b81811061011957610118611f08565b5b905060200281019061012b9190611f46565b606001602081019061013d9190611fac565b905061014a818a846103f4565b8d7ff759b8879b7c58816b62c8cb8572a777bed770ca90e4a5b3bb4c7a8f7e94cf138e8e8e8e8c8c600081811061018457610183611f08565b5b90506020028101906101969190611f46565b60400160208101906101a89190611fac565b878e8e60008181106101bd576101bc611f08565b5b90506020028101906101cf9190611f46565b608001358a6040516101e8989796959493929190612055565b60405180910390a2505060008160000181905550506000479050600082821161021257600061021f565b828261021e9190611ed4565b5b9050600081111561023757610236600085836103f4565b5b50505050505050505050505050565b6000807fa65bb2f450488ab0858c00edc14abc5297769bf42adb48cfb77752890e8b697b90508091505090565b60008073ffffffffffffffffffffffffffffffffffffffff168273ffffffffffffffffffffffffffffffffffffffff16149050919050565b600080848490509050600081036102ee576040517f0503c3ed00000000000000000000000000000000000000000000000000000000815260040160405180910390fd5b600085856001846102ff9190611ed4565b81811061030f5761030e611f08565b5b90506020028101906103219190611f46565b60600160208101906103339190611fac565b9050600061034082610448565b905061034b82610505565b1561035f57348161035c9190611ed4565b90505b600061036b888861053d565b9050610377888861065b565b6103848a898989856106cb565b60008261039085610448565b61039a9190611ed4565b9050898110156103e35789816040517f275c273c0000000000000000000000000000000000000000000000000000000081526004016103da9291906120c8565b60405180910390fd5b809550505050505095945050505050565b600073ffffffffffffffffffffffffffffffffffffffff168373ffffffffffffffffffffffffffffffffffffffff161461043857610433838383610a5f565b610443565b6104428282610b75565b5b505050565b60008073ffffffffffffffffffffffffffffffffffffffff168273ffffffffffffffffffffffffffffffffffffffff16146104fc578173ffffffffffffffffffffffffffffffffffffffff166370a08231306040518263ffffffff1660e01b81526004016104b691906120f1565b602060405180830381865afa1580156104d3573d6000803e3d6000fd5b505050506040513d601f19601f820116820180604052508101906104f79190612121565b6104fe565b475b9050919050565b60008073ffffffffffffffffffffffffffffffffffffffff168273ffffffffffffffffffffffffffffffffffffffff16149050919050565b6060600083839050905060008167ffffffffffffffff8111156105635761056261214e565b5b6040519080825280602002602001820160405280156105915781602001602082028036833780820191505090505b509050600080600090505b8381101561064e578686828181106105b7576105b6611f08565b5b90506020028101906105c99190611f46565b60600160208101906105db9190611fac565b91506105e682610448565b8382815181106105f9576105f8611f08565b5b60200260200101818152505061060e82610505565b15610643573483828151811061062757610626611f08565b5b6020026020010181815161063b9190611ed4565b915081815250505b80600101905061059c565b5081935050505092915050565b60005b828290508110156106c657600083838381811061067e5761067d611f08565b5b90506020028101906106909190611f46565b61069990612381565b90508060c00151156106b8576106b781604001518260800151610cca565b5b81806001019250505061065e565b505050565b8383838360008484905090506001811461092c57600085856001846106f09190611ed4565b818110610700576106ff611f08565b5b90506020028101906107129190611f46565b60600160208101906107249190611fac565b90506000808b8b9050905060005b8181101561084b57368d8d8381811061074e5761074d611f08565b5b90506020028101906107609190611f46565b905061077d8160400160208101906107789190611fac565b610505565b8061079f575061079e8160200160208101906107999190611fac565b610e28565b5b80156107c257506107c18160000160208101906107bc9190611fac565b610e28565b5b80156107ff57506107fe818060a001906107dc9190612394565b6000906004926107ee93929190612401565b906107f99190612480565b610e87565b5b610835576040517f9453980400000000000000000000000000000000000000000000000000000000815260040160405180910390fd5b61083f8f82610ef8565b81600101915050610732565b505060005b60018461085d9190611ed4565b81101561092457600088888381811061087957610878611f08565b5b905060200281019061088b9190611f46565b606001602081019061089d9190611fac565b90508373ffffffffffffffffffffffffffffffffffffffff168173ffffffffffffffffffffffffffffffffffffffff1614610918578582815181106108e5576108e4611f08565b5b60200260200101516108f682610448565b6109009190611ed4565b92506000831115610917576109168188856103f4565b5b5b81600101915050610850565b505050610a53565b600089899050905060005b81811015610a5057368b8b8381811061095357610952611f08565b5b90506020028101906109659190611f46565b905061098281604001602081019061097d9190611fac565b610505565b806109a457506109a381602001602081019061099e9190611fac565b610e28565b5b80156109c757506109c68160000160208101906109c19190611fac565b610e28565b5b8015610a045750610a03818060a001906109e19190612394565b6000906004926109f393929190612401565b906109fe9190612480565b610e87565b5b610a3a576040517f9453980400000000000000000000000000000000000000000000000000000000815260040160405180910390fd5b610a448d82610ef8565b81600101915050610937565b50505b50505050505050505050565b610a6883610505565b15610a9f576040517fd1bebf0c00000000000000000000000000000000000000000000000000000000815260040160405180910390fd5b60008373ffffffffffffffffffffffffffffffffffffffff166370a08231306040518263ffffffff1660e01b8152600401610ada91906120f1565b602060405180830381865afa158015610af7573d6000803e3d6000fd5b505050506040513d601f19601f82011682018060405250810190610b1b9190612121565b905080821115610b645781816040517fcf479181000000000000000000000000000000000000000000000000000000008152600401610b5b9291906120c8565b60405180910390fd5b610b6f848484611226565b50505050565b600073ffffffffffffffffffffffffffffffffffffffff168273ffffffffffffffffffffffffffffffffffffffff1603610bdb576040517f21f7434500000000000000000000000000000000000000000000000000000000815260040160405180910390fd5b47811115610c225780476040517fcf479181000000000000000000000000000000000000000000000000000000008152600401610c199291906120c8565b60405180910390fd5b60008273ffffffffffffffffffffffffffffffffffffffff1682604051610c4890612510565b60006040518083038185875af1925050503d8060008114610c85576040519150601f19603f3d011682016040523d82523d6000602084013e610c8a565b606091505b5050905080610cc5576040517f5a04673700000000000000000000000000000000000000000000000000000000815260040160405180910390fd5b505050565b610cd382610505565b15610d175780341015610d12576040517f2c5211c600000000000000000000000000000000000000000000000000000000815260040160405180910390fd5b610e24565b60008103610d51576040517f2c5211c600000000000000000000000000000000000000000000000000000000815260040160405180910390fd5b60008273ffffffffffffffffffffffffffffffffffffffff166370a08231336040518263ffffffff1660e01b8152600401610d8c91906120f1565b602060405180830381865afa158015610da9573d6000803e3d6000fd5b505050506040513d601f19601f82011682018060405250810190610dcd9190612121565b905081811015610e165781816040517fcf479181000000000000000000000000000000000000000000000000000000008152600401610e0d9291906120c8565b60405180910390fd5b610e22833330856112ac565b505b5050565b6000610e326114cc565b60000160008373ffffffffffffffffffffffffffffffffffffffff1673ffffffffffffffffffffffffffffffffffffffff16815260200190815260200160002060009054906101000a900460ff169050919050565b6000610e916114cc565b6001016000837bffffffffffffffffffffffffffffffffffffffffffffffffffffffff19167bffffffffffffffffffffffffffffffffffffffffffffffffffffffff1916815260200190815260200160002060009054906101000a900460ff169050919050565b610f13816000016020810190610f0e9190611fac565b6114f9565b610f49576040517f6eefed2000000000000000000000000000000000000000000000000000000000815260040160405180910390fd5b60008160800135905060008103610f8c576040517fe46e079c00000000000000000000000000000000000000000000000000000000815260040160405180910390fd5b6000610fa9836040016020810190610fa49190611fac565b610505565b610fb4576000610fba565b82608001355b90506000610fd9846040016020810190610fd49190611fac565b610448565b90506000610ff8856060016020810190610ff39190611fac565b610448565b905060008303611036576110358560400160208101906110189190611fac565b86602001602081019061102b9190611fac565b876080013561150c565b5b8460800135821015611085578460800135826040517fcf47918100000000000000000000000000000000000000000000000000000000815260040161107c9291906120c8565b60405180910390fd5b60008086600001602081019061109b9190611fac565b73ffffffffffffffffffffffffffffffffffffffff1685888060a001906110c29190612394565b6040516110d092919061254a565b60006040518083038185875af1925050503d806000811461110d576040519150601f19603f3d011682016040523d82523d6000602084013e611112565b606091505b5091509150816111665760006111278261166d565b9050806040517f08c379a000000000000000000000000000000000000000000000000000000000815260040161115d91906125d1565b60405180910390fd5b600061118388606001602081019061117e9190611fac565b610448565b90507f7bfdfdb5e3a3776976e53cb0607060f54c5312701c8cba1155cc4d5394440b38898960000160208101906111ba9190611fac565b8a60400160208101906111cd9190611fac565b8b60600160208101906111e09190611fac565b8c608001358987116111f257866111ff565b89876111fe9190611ed4565b5b426040516112139796959493929190612602565b60405180910390a1505050505050505050565b6112a78363a9059cbb60e01b8484604051602401611245929190612671565b604051602081830303815290604052907bffffffffffffffffffffffffffffffffffffffffffffffffffffffff19166020820180517bffffffffffffffffffffffffffffffffffffffffffffffffffffffff83818316178352505050506116f9565b505050565b600073ffffffffffffffffffffffffffffffffffffffff168473ffffffffffffffffffffffffffffffffffffffff1603611312576040517fd1bebf0c00000000000000000000000000000000000000000000000000000000815260040160405180910390fd5b600073ffffffffffffffffffffffffffffffffffffffff168273ffffffffffffffffffffffffffffffffffffffff1603611378576040517f21f7434500000000000000000000000000000000000000000000000000000000815260040160405180910390fd5b600084905060008173ffffffffffffffffffffffffffffffffffffffff166370a08231856040518263ffffffff1660e01b81526004016113b891906120f1565b602060405180830381865afa1580156113d5573d6000803e3d6000fd5b505050506040513d601f19601f820116820180604052508101906113f99190612121565b9050611407828686866117c0565b82818373ffffffffffffffffffffffffffffffffffffffff166370a08231876040518263ffffffff1660e01b815260040161144291906120f1565b602060405180830381865afa15801561145f573d6000803e3d6000fd5b505050506040513d601f19601f820116820180604052508101906114839190612121565b61148d9190611ed4565b146114c4576040517f2c5211c600000000000000000000000000000000000000000000000000000000815260040160405180910390fd5b505050505050565b6000807fbcebf0a9ab66af8ebd1c7c5806111adc185225ddfcbffe27e46ed5ac66b8904890508091505090565b600080823b905060008111915050919050565b600073ffffffffffffffffffffffffffffffffffffffff168373ffffffffffffffffffffffffffffffffffffffff16031561166857600073ffffffffffffffffffffffffffffffffffffffff168273ffffffffffffffffffffffffffffffffffffffff16036115a7576040517f63ba9bff00000000000000000000000000000000000000000000000000000000815260040160405180910390fd5b60008373ffffffffffffffffffffffffffffffffffffffff1663dd62ed3e30856040518363ffffffff1660e01b81526004016115e492919061269a565b602060405180830381865afa158015611601573d6000803e3d6000fd5b505050506040513d601f19601f820116820180604052508101906116259190612121565b905081811015611666576116658484837fffffffffffffffffffffffffffffffffffffffffffffffffffffffffffffffff6116609190611ed4565b611849565b5b505b505050565b60606044825110156116b6576040518060400160405280601d81526020017f5472616e73616374696f6e2072657665727465642073696c656e746c7900000081525090506116f4565b60006116da60048085516116ca9190611ed4565b8561195b9092919063ffffffff16565b9050808060200190518101906116f09190612764565b9150505b919050565b600061175b826040518060400160405280602081526020017f5361666545524332303a206c6f772d6c6576656c2063616c6c206661696c65648152508573ffffffffffffffffffffffffffffffffffffffff16611a679092919063ffffffff16565b90506000815111156117bb578080602001905181019061177b91906127c2565b6117ba576040517f08c379a00000000000000000000000000000000000000000000000000000000081526004016117b190612861565b60405180910390fd5b5b505050565b611843846323b872dd60e01b8585856040516024016117e193929190612881565b604051602081830303815290604052907bffffffffffffffffffffffffffffffffffffffffffffffffffffffff19166020820180517bffffffffffffffffffffffffffffffffffffffffffffffffffffffff83818316178352505050506116f9565b50505050565b6000818473ffffffffffffffffffffffffffffffffffffffff1663dd62ed3e30866040518363ffffffff1660e01b815260040161188792919061269a565b602060405180830381865afa1580156118a4573d6000803e3d6000fd5b505050506040513d601f19601f820116820180604052508101906118c89190612121565b6118d291906128b8565b90506119558463095ea7b360e01b85846040516024016118f3929190612671565b604051602081830303815290604052907bffffffffffffffffffffffffffffffffffffffffffffffffffffffff19166020820180517bffffffffffffffffffffffffffffffffffffffffffffffffffffffff83818316178352505050506116f9565b50505050565b606081601f8361196b91906128b8565b10156119a3576040517f47aaf07a00000000000000000000000000000000000000000000000000000000815260040160405180910390fd5b81836119af91906128b8565b845110156119e9576040517f3b99b53d00000000000000000000000000000000000000000000000000000000815260040160405180910390fd5b6060821560008114611a0a5760405191506000825260208201604052611a5b565b6040519150601f8416801560200281840101858101878315602002848b0101015b81831015611a485780518352602083019250602081019050611a2b565b50868552601f19601f8301166040525050505b50809150509392505050565b6060611a768484600085611a7f565b90509392505050565b606082471015611ac4576040517f08c379a0000000000000000000000000000000000000000000000000000000008152600401611abb9061295e565b60405180910390fd5b611acd85611b93565b611b0c576040517f08c379a0000000000000000000000000000000000000000000000000000000008152600401611b03906129ca565b60405180910390fd5b6000808673ffffffffffffffffffffffffffffffffffffffff168587604051611b359190612a26565b60006040518083038185875af1925050503d8060008114611b72576040519150601f19603f3d011682016040523d82523d6000602084013e611b77565b606091505b5091509150611b87828286611bb6565b92505050949350505050565b6000808273ffffffffffffffffffffffffffffffffffffffff163b119050919050565b60608315611bc657829050611c16565b600083511115611bd95782518084602001fd5b816040517f08c379a0000000000000000000000000000000000000000000000000000000008152600401611c0d91906125d1565b60405180910390fd5b9392505050565b6000604051905090565b600080fd5b600080fd5b6000819050919050565b611c4481611c31565b8114611c4f57600080fd5b50565b600081359050611c6181611c3b565b92915050565b600080fd5b600080fd5b600080fd5b60008083601f840112611c8c57611c8b611c67565b5b8235905067ffffffffffffffff811115611ca957611ca8611c6c565b5b602083019150836001820283011115611cc557611cc4611c71565b5b9250929050565b600073ffffffffffffffffffffffffffffffffffffffff82169050919050565b6000611cf782611ccc565b9050919050565b611d0781611cec565b8114611d1257600080fd5b50565b600081359050611d2481611cfe565b92915050565b6000819050919050565b611d3d81611d2a565b8114611d4857600080fd5b50565b600081359050611d5a81611d34565b92915050565b60008083601f840112611d7657611d75611c67565b5b8235905067ffffffffffffffff811115611d9357611d92611c6c565b5b602083019150836020820283011115611daf57611dae611c71565b5b9250929050565b600080600080600080600080600060c08a8c031215611dd857611dd7611c27565b5b6000611de68c828d01611c52565b99505060208a013567ffffffffffffffff811115611e0757611e06611c2c565b5b611e138c828d01611c76565b985098505060408a013567ffffffffffffffff811115611e3657611e35611c2c565b5b611e428c828d01611c76565b96509650506060611e558c828d01611d15565b9450506080611e668c828d01611d4b565b93505060a08a013567ffffffffffffffff811115611e8757611e86611c2c565b5b611e938c828d01611d60565b92509250509295985092959850929598565b7f4e487b7100000000000000000000000000000000000000000000000000000000600052601160045260246000fd5b6000611edf82611d2a565b9150611eea83611d2a565b9250828203905081811115611f0257611f01611ea5565b5b92915050565b7f4e487b7100000000000000000000000000000000000000000000000000000000600052603260045260246000fd5b600080fd5b600080fd5b600080fd5b60008235600160e003833603038112611f6257611f61611f37565b5b80830191505092915050565b6000611f7982611ccc565b9050919050565b611f8981611f6e565b8114611f9457600080fd5b50565b600081359050611fa681611f80565b92915050565b600060208284031215611fc257611fc1611c27565b5b6000611fd084828501611f97565b91505092915050565b600082825260208201905092915050565b82818337600083830152505050565b6000601f19601f8301169050919050565b60006120168385611fd9565b9350612023838584611fea565b61202c83611ff9565b840190509392505050565b61204081611f6e565b82525050565b61204f81611d2a565b82525050565b600060c0820190508181036000830152612070818a8c61200a565b9050818103602083015261208581888a61200a565b90506120946040830187612037565b6120a16060830186612037565b6120ae6080830185612046565b6120bb60a0830184612046565b9998505050505050505050565b60006040820190506120dd6000830185612046565b6120ea6020830184612046565b9392505050565b60006020820190506121066000830184612037565b92915050565b60008151905061211b81611d34565b92915050565b60006020828403121561213757612136611c27565b5b60006121458482850161210c565b91505092915050565b7f4e487b7100000000000000000000000000000000000000000000000000000000600052604160045260246000fd5b600080fd5b61218b82611ff9565b810181811067ffffffffffffffff821117156121aa576121a961214e565b5b80604052505050565b60006121bd611c1d565b90506121c98282612182565b919050565b600080fd5b600080fd5b600067ffffffffffffffff8211156121f3576121f261214e565b5b6121fc82611ff9565b9050602081019050919050565b600061221c612217846121d8565b6121b3565b905082815260208101848484011115612238576122376121d3565b5b612243848285611fea565b509392505050565b600082601f8301126122605761225f611c67565b5b8135612270848260208601612209565b91505092915050565b60008115159050919050565b61228e81612279565b811461229957600080fd5b50565b6000813590506122ab81612285565b92915050565b600060e082840312156122c7576122c661217d565b5b6122d160e06121b3565b905060006122e184828501611f97565b60008301525060206122f584828501611f97565b602083015250604061230984828501611f97565b604083015250606061231d84828501611f97565b606083015250608061233184828501611d4b565b60808301525060a082013567ffffffffffffffff811115612355576123546121ce565b5b6123618482850161224b565b60a08301525060c06123758482850161229c565b60c08301525092915050565b600061238d36836122b1565b9050919050565b600080833560016020038436030381126123b1576123b0611f37565b5b80840192508235915067ffffffffffffffff8211156123d3576123d2611f3c565b5b6020830192506001820236038313156123ef576123ee611f41565b5b509250929050565b600080fd5b600080fd5b60008085851115612415576124146123f7565b5b83861115612426576124256123fc565b5b6001850283019150848603905094509492505050565b600082905092915050565b60007fffffffff0000000000000000000000000000000000000000000000000000000082169050919050565b600082821b905092915050565b600061248c838361243c565b826124978135612447565b925060048210156124d7576124d27fffffffff0000000000000000000000000000000000000000000000000000000083600403600802612473565b831692505b505092915050565b600081905092915050565b50565b60006124fa6000836124df565b9150612505826124ea565b600082019050919050565b600061251b826124ed565b9150819050919050565b600061253183856124df565b935061253e838584611fea565b82840190509392505050565b6000612557828486612525565b91508190509392505050565b600081519050919050565b60005b8381101561258c578082015181840152602081019050612571565b60008484015250505050565b60006125a382612563565b6125ad8185611fd9565b93506125bd81856020860161256e565b6125c681611ff9565b840191505092915050565b600060208201905081810360008301526125eb8184612598565b905092915050565b6125fc81611c31565b82525050565b600060e082019050612617600083018a6125f3565b6126246020830189612037565b6126316040830188612037565b61263e6060830187612037565b61264b6080830186612046565b61265860a0830185612046565b61266560c0830184612046565b98975050505050505050565b60006040820190506126866000830185612037565b6126936020830184612046565b9392505050565b60006040820190506126af6000830185612037565b6126bc6020830184612037565b9392505050565b600067ffffffffffffffff8211156126de576126dd61214e565b5b6126e782611ff9565b9050602081019050919050565b6000612707612702846126c3565b6121b3565b905082815260208101848484011115612723576127226121d3565b5b61272e84828561256e565b509392505050565b600082601f83011261274b5761274a611c67565b5b815161275b8482602086016126f4565b91505092915050565b60006020828403121561277a57612779611c27565b5b600082015167ffffffffffffffff81111561279857612797611c2c565b5b6127a484828501612736565b91505092915050565b6000815190506127bc81612285565b92915050565b6000602082840312156127d8576127d7611c27565b5b60006127e6848285016127ad565b91505092915050565b7f5361666545524332303a204552433230206f7065726174696f6e20646964206e60008201527f6f74207375636365656400000000000000000000000000000000000000000000602082015250565b600061284b602a83611fd9565b9150612856826127ef565b604082019050919050565b6000602082019050818103600083015261287a8161283e565b9050919050565b60006060820190506128966000830186612037565b6128a36020830185612037565b6128b06040830184612046565b949350505050565b60006128c382611d2a565b91506128ce83611d2a565b92508282019050808211156128e6576128e5611ea5565b5b92915050565b7f416464726573733a20696e73756666696369656e742062616c616e636520666f60008201527f722063616c6c0000000000000000000000000000000000000000000000000000602082015250565b6000612948602683611fd9565b9150612953826128ec565b604082019050919050565b600060208201905081810360008301526129778161293b565b9050919050565b7f416464726573733a2063616c6c20746f206e6f6e2d636f6e7472616374000000600082015250565b60006129b4601d83611fd9565b91506129bf8261297e565b602082019050919050565b600060208201905081810360008301526129e3816129a7565b9050919050565b600081519050919050565b6000612a00826129ea565b612a0a81856124df565b9350612a1a81856020860161256e565b80840191505092915050565b6000612a3282846129f5565b91508190509291505056fea264697066735822122087ade63cdb4719930bc87f943e89182f33a9bf33ba1af13de2323e05a03f1f0664736f6c63430008110033",
  "devdoc": {
    "author": "LI.FI (https://li.fi)",
    "details": "Uses calldata to execute APPROVED arbitrary methods on DEXs",
    "kind": "dev",
    "methods": {
      "swapTokensGeneric(bytes32,string,string,address,uint256,(address,address,address,address,uint256,bytes,bool)[])": {
        "params": {
          "_integrator": "the name of the integrator",
          "_minAmount": "the minimum amount of the final asset to receive",
          "_receiver": "the address to receive the swapped tokens into (also excess tokens)",
          "_referrer": "the address of the referrer",
          "_swapData": "an object containing swap related data to perform swaps before bridging",
          "_transactionId": "the transaction id associated with the operation"
        }
      }
    },
    "title": "Generic Swap Facet",
    "version": 1
  },
  "userdoc": {
    "errors": {
      "ReentrancyError()": [
        {
          "notice": "Errors ///"
        }
      ]
    },
    "events": {
      "KanaSwappedGeneric(bytes32,string,string,address,address,uint256,uint256)": {
        "notice": "Events ///"
      },
      "KanaTransferStarted((bytes32,string,string,address,address,address,uint256,uint256,bool,bool))": {
        "notice": "Events ///"
      }
    },
    "kind": "user",
    "methods": {
      "swapTokensGeneric(bytes32,string,string,address,uint256,(address,address,address,address,uint256,bytes,bool)[])": {
        "notice": "Performs multiple swaps in one transaction"
      }
    },
    "notice": "Provides functionality for swapping through ANY APPROVED DEX",
    "version": 1
  },
  "storageLayout": {
    "storage": [],
    "types": null
  }
}