{
  "address": "0x461BA9Fb7418D11c725d3731047bD777B68DEfe0",
  "abi": [
    {
      "inputs": [
        {
          "internalType": "bytes4",
          "name": "_functionSelector",
          "type": "bytes4"
        }
      ],
      "name": "facetAddress",
      "outputs": [
        {
          "internalType": "address",
          "name": "facetAddress_",
          "type": "address"
        }
      ],
      "stateMutability": "view",
      "type": "function"
    },
    {
      "inputs": [],
      "name": "facetAddresses",
      "outputs": [
        {
          "internalType": "address[]",
          "name": "facetAddresses_",
          "type": "address[]"
        }
      ],
      "stateMutability": "view",
      "type": "function"
    },
    {
      "inputs": [
        {
          "internalType": "address",
          "name": "_facet",
          "type": "address"
        }
      ],
      "name": "facetFunctionSelectors",
      "outputs": [
        {
          "internalType": "bytes4[]",
          "name": "facetFunctionSelectors_",
          "type": "bytes4[]"
        }
      ],
      "stateMutability": "view",
      "type": "function"
    },
    {
      "inputs": [],
      "name": "facets",
      "outputs": [
        {
          "components": [
            {
              "internalType": "address",
              "name": "facetAddress",
              "type": "address"
            },
            {
              "internalType": "bytes4[]",
              "name": "functionSelectors",
              "type": "bytes4[]"
            }
          ],
          "internalType": "struct IDiamondLoupe.Facet[]",
          "name": "facets_",
          "type": "tuple[]"
        }
      ],
      "stateMutability": "view",
      "type": "function"
    },
    {
      "inputs": [
        {
          "internalType": "bytes4",
          "name": "_interfaceId",
          "type": "bytes4"
        }
      ],
      "name": "supportsInterface",
      "outputs": [
        {
          "internalType": "bool",
          "name": "",
          "type": "bool"
        }
      ],
      "stateMutability": "view",
      "type": "function"
    }
  ],
  "transactionHash": "0x58371edd92d5914ffbc08928a0cd7b6a1448ee75e54a6bd4d458cc0ea53ec809",
  "args": [],
  "numDeployments": 1,
  "solcInputHash": "69c926cf0df5e362af7501f6787806e4",
  "bytecode": "0x608060405234801561001057600080fd5b5061065b806100206000396000f3fe608060405234801561001057600080fd5b50600436106100575760003560e01c806301ffc9a71461005c57806352ef6b2c146100bd5780637a0ed627146100d2578063adfca15e146100e7578063cdffacc614610107575b600080fd5b6100a861006a36600461045d565b6001600160e01b03191660009081527fc8fcad8db84d3cc18b4c41d551ea0ee66dd599cde068d998e57d5e09332c131f602052604090205460ff1690565b60405190151581526020015b60405180910390f35b6100c561015f565b6040516100b4919061048e565b6100da6101d2565b6040516100b49190610520565b6100fa6100f536600461059d565b610391565b6040516100b491906105c6565b61014761011536600461045d565b6001600160e01b031916600090815260008051602061060683398151915260205260409020546001600160a01b031690565b6040516001600160a01b0390911681526020016100b4565b60606000600080516020610606833981519152600281018054604080516020808402820181019092528281529394508301828280156101c757602002820191906000526020600020905b81546001600160a01b031681526001909101906020018083116101a9575b505050505091505090565b7fc8fcad8db84d3cc18b4c41d551ea0ee66dd599cde068d998e57d5e09332c131e54606090600080516020610606833981519152908067ffffffffffffffff811115610220576102206105d9565b60405190808252806020026020018201604052801561026657816020015b60408051808201909152600081526060602082015281526020019060019003908161023e5790505b50925060005b8181101561038b57600083600201828154811061028b5761028b6105ef565b9060005260206000200160009054906101000a90046001600160a01b03169050808583815181106102be576102be6105ef565b6020908102919091018101516001600160a01b03928316905290821660009081526001860182526040908190208054825181850281018501909352808352919290919083018282801561035d57602002820191906000526020600020906000905b82829054906101000a900460e01b6001600160e01b0319168152602001906004019060208260030104928301926001038202915080841161031f5790505b5050505050858381518110610374576103746105ef565b60209081029190910181015101525060010161026c565b50505090565b6001600160a01b03811660009081527fc8fcad8db84d3cc18b4c41d551ea0ee66dd599cde068d998e57d5e09332c131d60209081526040918290208054835181840281018401909452808452606093600080516020610606833981519152939092919083018282801561045057602002820191906000526020600020906000905b82829054906101000a900460e01b6001600160e01b031916815260200190600401906020826003010492830192600103820291508084116104125790505b5050505050915050919050565b60006020828403121561046f57600080fd5b81356001600160e01b03198116811461048757600080fd5b9392505050565b6020808252825182820181905260009190848201906040850190845b818110156104cf5783516001600160a01b0316835292840192918401916001016104aa565b50909695505050505050565b600081518084526020808501945080840160005b838110156105155781516001600160e01b031916875295820195908201906001016104ef565b509495945050505050565b60006020808301818452808551808352604092508286019150828160051b87010184880160005b8381101561058f57888303603f19018552815180516001600160a01b0316845287015187840187905261057c878501826104db565b9588019593505090860190600101610547565b509098975050505050505050565b6000602082840312156105af57600080fd5b81356001600160a01b038116811461048757600080fd5b60208152600061048760208301846104db565b634e487b7160e01b600052604160045260246000fd5b634e487b7160e01b600052603260045260246000fdfec8fcad8db84d3cc18b4c41d551ea0ee66dd599cde068d998e57d5e09332c131ca2646970667358221220d4ef6e2d0978051fca52d7a2c07c03bc9d5ec2b4e9fd664e560f4b0bbcd1008564736f6c63430008110033",
  "devdoc": {
    "kind": "dev",
    "methods": {
      "facetAddress(bytes4)": {
        "details": "If facet is not found return address(0).",
        "params": {
          "_functionSelector": "The function selector."
        },
        "returns": {
          "facetAddress_": "The facet address."
        }
      },
      "facetAddresses()": {
        "returns": {
          "facetAddresses_": "facetAddresses_"
        }
      },
      "facetFunctionSelectors(address)": {
        "params": {
          "_facet": "The facet address."
        },
        "returns": {
          "facetFunctionSelectors_": "facetFunctionSelectors_"
        }
      },
      "facets()": {
        "returns": {
          "facets_": "Facet"
        }
      }
    },
    "version": 1
  },
  "userdoc": {
    "kind": "user",
    "methods": {
      "facetAddress(bytes4)": {
        "notice": "Gets the facet that supports the given selector."
      },
      "facetAddresses()": {
        "notice": "Get all the facet addresses used by a diamond."
      },
      "facetFunctionSelectors(address)": {
        "notice": "Gets all the function selectors provided by a facet."
      },
      "facets()": {
        "notice": "Gets all facets and their selectors."
      }
    },
    "version": 1
  },
  "storageLayout": {
    "storage": [],
    "types": null
  }
}