{
  "address": "0x34F4C45d04e1953d9885B230E4AcbE6E5EE9c65d",
  "abi": [
    {
      "inputs": [],
      "name": "ContractCallNotAllowed",
      "type": "error"
    },
    {
      "inputs": [
        {
          "internalType": "uint256",
          "name": "required",
          "type": "uint256"
        },
        {
          "internalType": "uint256",
          "name": "balance",
          "type": "uint256"
        }
      ],
      "name": "InsufficientBalance",
      "type": "error"
    },
    {
      "inputs": [],
      "name": "InvalidAmount",
      "type": "error"
    },
    {
      "inputs": [],
      "name": "InvalidContract",
      "type": "error"
    },
    {
      "inputs": [],
      "name": "InvalidReceiver",
      "type": "error"
    },
    {
      "inputs": [],
      "name": "NativeAssetTransferFailed",
      "type": "error"
    },
    {
      "inputs": [],
      "name": "NoSwapDataProvided",
      "type": "error"
    },
    {
      "inputs": [],
      "name": "NoSwapFromZeroBalance",
      "type": "error"
    },
    {
      "inputs": [],
      "name": "NoTransferToNullAddress",
      "type": "error"
    },
    {
      "inputs": [],
      "name": "NullAddrIsNotAValidSpender",
      "type": "error"
    },
    {
      "inputs": [],
      "name": "NullAddrIsNotAnERC20Token",
      "type": "error"
    },
    {
      "inputs": [],
      "name": "ReentrancyError",
      "type": "error"
    },
    {
      "inputs": [],
      "name": "SliceOutOfBounds",
      "type": "error"
    },
    {
      "inputs": [],
      "name": "SliceOverflow",
      "type": "error"
    },
    {
      "anonymous": false,
      "inputs": [
        {
          "indexed": true,
          "internalType": "bytes32",
          "name": "transactionId",
          "type": "bytes32"
        },
        {
          "indexed": false,
          "internalType": "string",
          "name": "integrator",
          "type": "string"
        },
        {
          "indexed": false,
          "internalType": "string",
          "name": "referrer",
          "type": "string"
        },
        {
          "indexed": false,
          "internalType": "address",
          "name": "fromAssetId",
          "type": "address"
        },
        {
          "indexed": false,
          "internalType": "address",
          "name": "toAssetId",
          "type": "address"
        },
        {
          "indexed": false,
          "internalType": "uint256",
          "name": "fromAmount",
          "type": "uint256"
        },
        {
          "indexed": false,
          "internalType": "uint256",
          "name": "toAmount",
          "type": "uint256"
        }
      ],
      "name": "KanaSwappedGeneric",
      "type": "event"
    },
    {
      "anonymous": false,
      "inputs": [
        {
          "indexed": true,
          "internalType": "bytes32",
          "name": "transactionId",
          "type": "bytes32"
        },
        {
          "indexed": false,
          "internalType": "address",
          "name": "receivingAssetId",
          "type": "address"
        },
        {
          "indexed": false,
          "internalType": "address",
          "name": "receiver",
          "type": "address"
        },
        {
          "indexed": false,
          "internalType": "uint256",
          "name": "amount",
          "type": "uint256"
        },
        {
          "indexed": false,
          "internalType": "uint256",
          "name": "timestamp",
          "type": "uint256"
        }
      ],
      "name": "KanaTransferCompleted",
      "type": "event"
    },
    {
      "anonymous": false,
      "inputs": [
        {
          "components": [
            {
              "internalType": "bytes32",
              "name": "transactionId",
              "type": "bytes32"
            },
            {
              "internalType": "string",
              "name": "bridge",
              "type": "string"
            },
            {
              "internalType": "string",
              "name": "integrator",
              "type": "string"
            },
            {
              "internalType": "address",
              "name": "referrer",
              "type": "address"
            },
            {
              "internalType": "address",
              "name": "sendingAssetId",
              "type": "address"
            },
            {
              "internalType": "address",
              "name": "receiver",
              "type": "address"
            },
            {
              "internalType": "uint256",
              "name": "minAmount",
              "type": "uint256"
            },
            {
              "internalType": "uint256",
              "name": "destinationChainId",
              "type": "uint256"
            },
            {
              "internalType": "bool",
              "name": "hasSourceSwaps",
              "type": "bool"
            },
            {
              "internalType": "bool",
              "name": "hasDestinationCall",
              "type": "bool"
            }
          ],
          "indexed": false,
          "internalType": "struct IKana.BridgeData",
          "name": "bridgeData",
          "type": "tuple"
        }
      ],
      "name": "KanaTransferStarted",
      "type": "event"
    },
    {
      "anonymous": false,
      "inputs": [
        {
          "indexed": false,
          "internalType": "uint256",
          "name": "length",
          "type": "uint256"
        }
      ],
      "name": "Test",
      "type": "event"
    },
    {
      "inputs": [
        {
          "internalType": "bytes32",
          "name": "_transactionId",
          "type": "bytes32"
        },
        {
          "internalType": "string",
          "name": "_integrator",
          "type": "string"
        },
        {
          "internalType": "string",
          "name": "_referrer",
          "type": "string"
        },
        {
          "internalType": "address payable",
          "name": "_receiver",
          "type": "address"
        },
        {
          "internalType": "uint256",
          "name": "_minAmount",
          "type": "uint256"
        },
        {
          "components": [
            {
              "internalType": "address",
              "name": "callTo",
              "type": "address"
            },
            {
              "internalType": "address",
              "name": "approveTo",
              "type": "address"
            },
            {
              "internalType": "address",
              "name": "sendingAssetId",
              "type": "address"
            },
            {
              "internalType": "address",
              "name": "receivingAssetId",
              "type": "address"
            },
            {
              "internalType": "uint256",
              "name": "fromAmount",
              "type": "uint256"
            },
            {
              "internalType": "bytes",
              "name": "callData",
              "type": "bytes"
            },
            {
              "internalType": "bool",
              "name": "requiresDeposit",
              "type": "bool"
            }
          ],
          "internalType": "struct LibSwap.SwapData[]",
          "name": "_swapData",
          "type": "tuple[]"
        }
      ],
      "name": "swapTokensGeneric",
      "outputs": [],
      "stateMutability": "payable",
      "type": "function"
    },
    {
      "inputs": [
        {
          "internalType": "bytes32",
          "name": "_transactionId",
          "type": "bytes32"
        },
        {
          "internalType": "string",
          "name": "_integrator",
          "type": "string"
        },
        {
          "internalType": "string",
          "name": "_referrer",
          "type": "string"
        },
        {
          "internalType": "address payable",
          "name": "_receiver",
          "type": "address"
        },
        {
          "internalType": "uint256",
          "name": "_minAmount",
          "type": "uint256"
        },
        {
          "components": [
            {
              "internalType": "address",
              "name": "callTo",
              "type": "address"
            },
            {
              "internalType": "address",
              "name": "approveTo",
              "type": "address"
            },
            {
              "internalType": "address",
              "name": "sendingAssetId",
              "type": "address"
            },
            {
              "internalType": "address",
              "name": "receivingAssetId",
              "type": "address"
            },
            {
              "internalType": "uint256",
              "name": "fromAmount",
              "type": "uint256"
            },
            {
              "internalType": "bytes",
              "name": "callData",
              "type": "bytes"
            },
            {
              "internalType": "bool",
              "name": "requiresDeposit",
              "type": "bool"
            }
          ],
          "internalType": "struct LibSwap.SwapData[]",
          "name": "_swapData",
          "type": "tuple[]"
        }
      ],
      "name": "test",
      "outputs": [],
      "stateMutability": "payable",
      "type": "function"
    }
  ],
  "transactionHash": "0xbdda0f8469b4254e447a9d3d4e034e9a11ad200ba0819f585f156f1ebdf119cf",
  "args": [],
  "numDeployments": 1,
  "solcInputHash": "6f0ca5b5fb4ce3a01cff4e08609619a8",
  "bytecode": "0x608060405234801561001057600080fd5b50611b81806100206000396000f3fe6080604052600436106100295760003560e01c80634630a0d81461002e578063d5783af114610043575b600080fd5b61004161003c3660046115d7565b610056565b005b6100416100513660046115d7565b61021d565b83600061006334476116de565b7fa65bb2f450488ab0858c00edc14abc5297769bf42adb48cfb77752890e8b697b805491925090600019016100ab576040516329f745a760e01b815260040160405180910390fd5b600181556001600160a01b0387166100d657604051631e4ec46b60e01b815260040160405180910390fd5b60006100e58d8888888c610303565b9050600086866100f66001826116de565b818110610105576101056116f1565b90506020028101906101179190611707565b610128906080810190606001611727565b9050610135818a846103db565b8d7ff759b8879b7c58816b62c8cb8572a777bed770ca90e4a5b3bb4c7a8f7e94cf138e8e8e8e8c8c600081811061016e5761016e6116f1565b90506020028101906101809190611707565b610191906060810190604001611727565b878e8e60008181106101a5576101a56116f1565b90506020028101906101b79190611707565b608001358a6040516101d098979695949392919061176d565b60405180910390a2505060009081905547908282116101f05760006101fa565b6101fa83836116de565b9050801561020e5761020e600085836103db565b50505050505050505050505050565b83600061022a34476116de565b7fa65bb2f450488ab0858c00edc14abc5297769bf42adb48cfb77752890e8b697b80549192509060001901610272576040516329f745a760e01b815260040160405180910390fd5b6001815560006102858d8888888c610303565b9050600086866102966001826116de565b8181106102a5576102a56116f1565b90506020028101906102b79190611707565b6102c8906080810190606001611727565b90508d7ff759b8879b7c58816b62c8cb8572a777bed770ca90e4a5b3bb4c7a8f7e94cf138e8e8e8e8c8c600081811061016e5761016e6116f1565b60008280820361032657604051630503c3ed60e01b815260040160405180910390fd5b600085856103356001856116de565b818110610344576103446116f1565b90506020028101906103569190611707565b610367906080810190606001611727565b9050600061037482610404565b90506001600160a01b0382166103915761038e34826116de565b90505b600061039d888861048a565b90506103a98888610589565b6103b68a898989856105ea565b6000826103c285610404565b6103cc91906116de565b9b9a5050505050505050505050565b6001600160a01b038316156103fa576103f583838361091e565b505050565b6103f582826109f3565b60006001600160a01b03821615610482576040516370a0823160e01b81523060048201526001600160a01b038316906370a0823190602401602060405180830381865afa158015610459573d6000803e3d6000fd5b505050506040513d601f19601f8201168201806040525081019061047d91906117c5565b610484565b475b92915050565b60608160008167ffffffffffffffff8111156104a8576104a86117de565b6040519080825280602002602001820160405280156104d1578160200160208202803683370190505b5090506000805b8381101561057e578686828181106104f2576104f26116f1565b90506020028101906105049190611707565b610515906080810190606001611727565b915061052082610404565b838281518110610532576105326116f1565b60209081029190910101526001600160a01b038216610576573483828151811061055e5761055e6116f1565b6020026020010181815161057291906116de565b9052505b6001016104d8565b509095945050505050565b60005b818110156103f55760008383838181106105a8576105a86116f1565b90506020028101906105ba9190611707565b6105c3906118e5565b90508060c00151156105e1576105e181604001518260800151610ab8565b5060010161058c565b83838383826001811461085257600085856106066001856116de565b818110610615576106156116f1565b90506020028101906106279190611707565b610638906080810190606001611727565b9050600089815b8181101561079857368d8d8381811061065a5761065a6116f1565b905060200281019061066c9190611707565b905061068e6106816060830160408401611727565b6001600160a01b03161590565b806106e457506106e46106a76040830160208401611727565b6001600160a01b031660009081527fbcebf0a9ab66af8ebd1c7c5806111adc185225ddfcbffe27e46ed5ac66b89048602052604090205460ff1690565b80156106fb57506106fb6106a76020830183611727565b8015610768575061076861071260a083018361198a565b610721916004916000916119d1565b61072a916119fb565b6001600160e01b03191660009081527fbcebf0a9ab66af8ebd1c7c5806111adc185225ddfcbffe27e46ed5ac66b89049602052604090205460ff1690565b61078557604051632514e60160e21b815260040160405180910390fd5b61078f8f82610bb0565b5060010161063f565b505060005b6107a86001856116de565b81101561084a5760008888838181106107c3576107c36116f1565b90506020028101906107d59190611707565b6107e6906080810190606001611727565b9050836001600160a01b0316816001600160a01b03161461084157858281518110610813576108136116f1565b602002602001015161082482610404565b61082e91906116de565b92508215610841576108418188856103db565b5060010161079d565b505050610912565b8760005b8181101561090f57368b8b83818110610871576108716116f1565b90506020028101906108839190611707565b90506108986106816060830160408401611727565b806108b157506108b16106a76040830160208401611727565b80156108c857506108c86106a76020830183611727565b80156108df57506108df61071260a083018361198a565b6108fc57604051632514e60160e21b815260040160405180910390fd5b6109068d82610bb0565b50600101610856565b50505b50505050505050505050565b6001600160a01b0383166109455760405163346fafc360e21b815260040160405180910390fd5b6040516370a0823160e01b81523060048201526000906001600160a01b038516906370a0823190602401602060405180830381865afa15801561098c573d6000803e3d6000fd5b505050506040513d601f19601f820116820180604052508101906109b091906117c5565b9050808211156109e25760405163cf47918160e01b815260048101839052602481018290526044015b60405180910390fd5b6109ed848484610e47565b50505050565b6001600160a01b038216610a1a576040516321f7434560e01b815260040160405180910390fd5b47811115610a445760405163cf47918160e01b8152600481018290524760248201526044016109d9565b6000826001600160a01b03168260405160006040518083038185875af1925050503d8060008114610a91576040519150601f19603f3d011682016040523d82523d6000602084013e610a96565b606091505b50509050806103f557604051635a04673760e01b815260040160405180910390fd5b6001600160a01b038216610aeb5780341015610ae75760405163162908e360e11b815260040160405180910390fd5b5050565b80600003610b0c5760405163162908e360e11b815260040160405180910390fd5b6040516370a0823160e01b81523360048201526000906001600160a01b038416906370a0823190602401602060405180830381865afa158015610b53573d6000803e3d6000fd5b505050506040513d601f19601f82011682018060405250810190610b7791906117c5565b905081811015610ba45760405163cf47918160e01b815260048101839052602481018290526044016109d9565b6103f583333085610eaa565b610bc6610bc06020830183611727565b3b151590565b610be3576040516303777f6960e51b815260040160405180910390fd5b60808101356000819003610c0a5760405163391b81e760e21b815260040160405180910390fd5b6000610c1f6106816060850160408601611727565b610c2a576000610c30565b82608001355b90506000610c4c610c476060860160408701611727565b610404565b90506000610c63610c476080870160608801611727565b905082600003610c9a57610c9a610c806060870160408801611727565b610c906040880160208901611727565b8760800135611013565b8460800135821015610ccc5760405163cf47918160e01b815260808601356004820152602481018390526044016109d9565b600080610cdc6020880188611727565b6001600160a01b031685610cf360a08a018a61198a565b604051610d01929190611a2b565b60006040518083038185875af1925050503d8060008114610d3e576040519150601f19603f3d011682016040523d82523d6000602084013e610d43565b606091505b509150915081610d74576000610d58826110e1565b90508060405162461bcd60e51b81526004016109d99190611a5f565b6000610d89610c4760808a0160608b01611727565b90507f7bfdfdb5e3a3776976e53cb0607060f54c5312701c8cba1155cc4d5394440b3889610dba60208b018b611727565b610dca60608c0160408d01611727565b610dda60808d0160608e01611727565b8c60800135898711610dec5786610df6565b610df68a886116de565b604080519687526001600160a01b0395861660208801529385169386019390935292166060840152608083019190915260a08201524260c082015260e00160405180910390a1505050505050505050565b6040516001600160a01b0383166024820152604481018290526103f590849063a9059cbb60e01b906064015b60408051601f198184030181529190526020810180516001600160e01b03166001600160e01b03199093169290921790915261115f565b6001600160a01b038416610ed15760405163346fafc360e21b815260040160405180910390fd5b6001600160a01b038216610ef8576040516321f7434560e01b815260040160405180910390fd5b6040516370a0823160e01b81526001600160a01b03838116600483015285916000918316906370a0823190602401602060405180830381865afa158015610f43573d6000803e3d6000fd5b505050506040513d601f19601f82011682018060405250810190610f6791906117c5565b9050610f7582868686611231565b6040516370a0823160e01b81526001600160a01b038581166004830152849183918516906370a0823190602401602060405180830381865afa158015610fbf573d6000803e3d6000fd5b505050506040513d601f19601f82011682018060405250810190610fe391906117c5565b610fed91906116de565b1461100b5760405163162908e360e11b815260040160405180910390fd5b505050505050565b6001600160a01b03831661102657505050565b6001600160a01b03821661104d576040516363ba9bff60e01b815260040160405180910390fd5b604051636eb1769f60e11b81523060048201526001600160a01b0383811660248301526000919085169063dd62ed3e90604401602060405180830381865afa15801561109d573d6000803e3d6000fd5b505050506040513d601f19601f820116820180604052508101906110c191906117c5565b9050818110156109ed576109ed84846110dc846000196116de565b611269565b606060448251101561112657505060408051808201909152601d81527f5472616e73616374696f6e2072657665727465642073696c656e746c79000000602082015290565b6000611142600480855161113a91906116de565b85919061131b565b9050808060200190518101906111589190611a92565b9392505050565b60006111b4826040518060400160405280602081526020017f5361666545524332303a206c6f772d6c6576656c2063616c6c206661696c6564815250856001600160a01b03166113e59092919063ffffffff16565b8051909150156103f557808060200190518101906111d29190611b09565b6103f55760405162461bcd60e51b815260206004820152602a60248201527f5361666545524332303a204552433230206f7065726174696f6e20646964206e6044820152691bdd081cdd58d8d9595960b21b60648201526084016109d9565b6040516001600160a01b03808516602483015283166044820152606481018290526109ed9085906323b872dd60e01b90608401610e73565b604051636eb1769f60e11b81523060048201526001600160a01b038381166024830152600091839186169063dd62ed3e90604401602060405180830381865afa1580156112ba573d6000803e3d6000fd5b505050506040513d601f19601f820116820180604052508101906112de91906117c5565b6112e89190611b26565b6040516001600160a01b0385166024820152604481018290529091506109ed90859063095ea7b360e01b90606401610e73565b60608161132981601f611b26565b1015611348576040516323d5783d60e11b815260040160405180910390fd5b6113528284611b26565b8451101561137357604051633b99b53d60e01b815260040160405180910390fd5b60608215801561139257604051915060008252602082016040526113dc565b6040519150601f8416801560200281840101858101878315602002848b0101015b818310156113cb5780518352602092830192016113b3565b5050858452601f01601f1916604052505b50949350505050565b60606113f484846000856113fc565b949350505050565b60608247101561145d5760405162461bcd60e51b815260206004820152602660248201527f416464726573733a20696e73756666696369656e742062616c616e636520666f6044820152651c8818d85b1b60d21b60648201526084016109d9565b6001600160a01b0385163b6114b45760405162461bcd60e51b815260206004820152601d60248201527f416464726573733a2063616c6c20746f206e6f6e2d636f6e747261637400000060448201526064016109d9565b600080866001600160a01b031685876040516114d09190611b39565b60006040518083038185875af1925050503d806000811461150d576040519150601f19603f3d011682016040523d82523d6000602084013e611512565b606091505b509150915061152282828661152d565b979650505050505050565b6060831561153c575081611158565b82511561154c5782518084602001fd5b8160405162461bcd60e51b81526004016109d99190611a5f565b60008083601f84011261157857600080fd5b50813567ffffffffffffffff81111561159057600080fd5b6020830191508360208285010111156115a857600080fd5b9250929050565b6001600160a01b03811681146115c457600080fd5b50565b80356115d2816115af565b919050565b600080600080600080600080600060c08a8c0312156115f557600080fd5b8935985060208a013567ffffffffffffffff8082111561161457600080fd5b6116208d838e01611566565b909a50985060408c013591508082111561163957600080fd5b6116458d838e01611566565b909850965060608c0135915061165a826115af565b90945060808b0135935060a08b0135908082111561167757600080fd5b818c0191508c601f83011261168b57600080fd5b81358181111561169a57600080fd5b8d60208260051b85010111156116af57600080fd5b6020830194508093505050509295985092959850929598565b634e487b7160e01b600052601160045260246000fd5b81810381811115610484576104846116c8565b634e487b7160e01b600052603260045260246000fd5b6000823560de1983360301811261171d57600080fd5b9190910192915050565b60006020828403121561173957600080fd5b8135611158816115af565b81835281816020850137506000828201602090810191909152601f909101601f19169091010190565b60c08152600061178160c083018a8c611744565b828103602084015261179481898b611744565b6001600160a01b03978816604085015295909616606083015250608081019290925260a09091015295945050505050565b6000602082840312156117d757600080fd5b5051919050565b634e487b7160e01b600052604160045260246000fd5b60405160e0810167ffffffffffffffff81118282101715611817576118176117de565b60405290565b604051601f8201601f1916810167ffffffffffffffff81118282101715611846576118466117de565b604052919050565b600067ffffffffffffffff821115611868576118686117de565b50601f01601f191660200190565b600082601f83011261188757600080fd5b813561189a6118958261184e565b61181d565b8181528460208386010111156118af57600080fd5b816020850160208301376000918101602001919091529392505050565b80151581146115c457600080fd5b80356115d2816118cc565b600060e082360312156118f757600080fd5b6118ff6117f4565b611908836115c7565b8152611916602084016115c7565b6020820152611927604084016115c7565b6040820152611938606084016115c7565b60608201526080830135608082015260a083013567ffffffffffffffff81111561196157600080fd5b61196d36828601611876565b60a08301525061197f60c084016118da565b60c082015292915050565b6000808335601e198436030181126119a157600080fd5b83018035915067ffffffffffffffff8211156119bc57600080fd5b6020019150368190038213156115a857600080fd5b600080858511156119e157600080fd5b838611156119ee57600080fd5b5050820193919092039150565b6001600160e01b03198135818116916004851015611a235780818660040360031b1b83161692505b505092915050565b8183823760009101908152919050565b60005b83811015611a56578181015183820152602001611a3e565b50506000910152565b6020815260008251806020840152611a7e816040850160208701611a3b565b601f01601f19169190910160400192915050565b600060208284031215611aa457600080fd5b815167ffffffffffffffff811115611abb57600080fd5b8201601f81018413611acc57600080fd5b8051611ada6118958261184e565b818152856020838501011115611aef57600080fd5b611b00826020830160208601611a3b565b95945050505050565b600060208284031215611b1b57600080fd5b8151611158816118cc565b80820180821115610484576104846116c8565b6000825161171d818460208701611a3b56fea2646970667358221220384d7f94308bec774e371463aecc0f0e08ce32b77cb36300cff35540ede76fe564736f6c63430008110033",
  "devdoc": {
    "author": "LI.FI (https://li.fi)",
    "details": "Uses calldata to execute APPROVED arbitrary methods on DEXs",
    "kind": "dev",
    "methods": {
      "swapTokensGeneric(bytes32,string,string,address,uint256,(address,address,address,address,uint256,bytes,bool)[])": {
        "params": {
          "_integrator": "the name of the integrator",
          "_minAmount": "the minimum amount of the final asset to receive",
          "_receiver": "the address to receive the swapped tokens into (also excess tokens)",
          "_referrer": "the address of the referrer",
          "_swapData": "an object containing swap related data to perform swaps before bridging",
          "_transactionId": "the transaction id associated with the operation"
        }
      }
    },
    "title": "Generic Swap Facet",
    "version": 1
  },
  "userdoc": {
    "errors": {
      "ReentrancyError()": [
        {
          "notice": "Errors ///"
        }
      ]
    },
    "events": {
      "KanaSwappedGeneric(bytes32,string,string,address,address,uint256,uint256)": {
        "notice": "Events ///"
      },
      "KanaTransferStarted((bytes32,string,string,address,address,address,uint256,uint256,bool,bool))": {
        "notice": "Events ///"
      }
    },
    "kind": "user",
    "methods": {
      "swapTokensGeneric(bytes32,string,string,address,uint256,(address,address,address,address,uint256,bytes,bool)[])": {
        "notice": "Performs multiple swaps in one transaction"
      }
    },
    "notice": "Provides functionality for swapping through ANY APPROVED DEX",
    "version": 1
  },
  "storageLayout": {
    "storage": [],
    "types": null
  }
}